{
  "contractName": "ContractManager",
  "abi": [
    {
      "anonymous": false,
      "inputs": [
        {
          "indexed": false,
          "internalType": "address",
          "name": "client",
          "type": "address"
        },
        {
          "indexed": false,
          "internalType": "address payable",
          "name": "freelancer",
          "type": "address"
        },
        {
          "indexed": false,
          "internalType": "uint256",
          "name": "deadline",
          "type": "uint256"
        },
        {
          "indexed": false,
          "internalType": "uint256",
          "name": "payment",
          "type": "uint256"
        }
      ],
      "name": "ContractCreated",
      "type": "event"
    },
    {
      "anonymous": false,
      "inputs": [
        {
          "indexed": false,
          "internalType": "uint256",
          "name": "contractID",
          "type": "uint256"
        },
        {
          "indexed": false,
          "internalType": "uint256",
          "name": "deadline",
          "type": "uint256"
        }
      ],
      "name": "DeadlineChanged",
      "type": "event"
    },
    {
      "anonymous": false,
      "inputs": [
        {
          "indexed": false,
          "internalType": "uint256",
          "name": "contractID",
          "type": "uint256"
        },
        {
          "indexed": false,
          "internalType": "uint256",
          "name": "payment",
          "type": "uint256"
        }
      ],
      "name": "PaymentChanged",
      "type": "event"
    },
    {
      "inputs": [],
      "name": "contractID",
      "outputs": [
        {
          "internalType": "uint256",
          "name": "",
          "type": "uint256"
        }
      ],
      "stateMutability": "view",
      "type": "function"
    },
    {
      "inputs": [
        {
          "internalType": "uint256",
          "name": "",
          "type": "uint256"
        }
      ],
      "name": "contracts",
      "outputs": [
        {
          "internalType": "address payable",
          "name": "freelancer",
          "type": "address"
        },
        {
          "internalType": "address",
          "name": "client",
          "type": "address"
        },
        {
          "internalType": "uint256",
          "name": "deadline",
          "type": "uint256"
        },
        {
          "internalType": "uint256",
          "name": "payment",
          "type": "uint256"
        }
      ],
      "stateMutability": "view",
      "type": "function"
    },
    {
      "inputs": [
        {
          "internalType": "address payable",
          "name": "_freelancer",
          "type": "address"
        },
        {
          "internalType": "uint256",
          "name": "_deadline",
          "type": "uint256"
        },
        {
          "internalType": "uint256",
          "name": "_payment",
          "type": "uint256"
        }
      ],
      "name": "createContract",
      "outputs": [],
      "stateMutability": "nonpayable",
      "type": "function"
    },
    {
      "inputs": [
        {
          "internalType": "uint256",
          "name": "_contractID",
          "type": "uint256"
        },
        {
          "internalType": "uint256",
          "name": "_newDeadline",
          "type": "uint256"
        }
      ],
      "name": "changeDeadline",
      "outputs": [],
      "stateMutability": "nonpayable",
      "type": "function"
    },
    {
      "inputs": [
        {
          "internalType": "uint256",
          "name": "_contractID",
          "type": "uint256"
        },
        {
          "internalType": "uint256",
          "name": "_newPaymentAmount",
          "type": "uint256"
        }
      ],
      "name": "changePaymentAmount",
      "outputs": [],
      "stateMutability": "nonpayable",
      "type": "function"
    }
  ],
  "bytecode": "0x60806040526000805534801561001457600080fd5b50610667806100246000396000f3fe608060405234801561001057600080fd5b50600436106100575760003560e01c80631786e6951461005c578063474da79a1461007857806391f30bd4146100ab578063b0d10c39146100c9578063c29b39b8146100e5575b600080fd5b61007660048036038101906100719190610406565b610101565b005b610092600480360381019061008d91906103dd565b610159565b6040516100a2949392919061046f565b60405180910390f35b6100b36101c9565b6040516100c091906104f9565b60405180910390f35b6100e360048036038101906100de919061038e565b6101cf565b005b6100ff60048036038101906100fa9190610406565b61030c565b005b8060016000848152602001908152602001600020600201819055507fb50b49938e915b0ab39e99a2d0810e190d6a377647ef06ec45b1e54b892968a6828260405161014d929190610514565b60405180910390a15050565b60016020528060005260406000206000915090508060000160009054906101000a900473ffffffffffffffffffffffffffffffffffffffff16908060010160009054906101000a900473ffffffffffffffffffffffffffffffffffffffff16908060020154908060030154905084565b60005481565b82600160008054815260200190815260200160002060000160006101000a81548173ffffffffffffffffffffffffffffffffffffffff021916908373ffffffffffffffffffffffffffffffffffffffff16021790555033600160008054815260200190815260200160002060010160006101000a81548173ffffffffffffffffffffffffffffffffffffffff021916908373ffffffffffffffffffffffffffffffffffffffff16021790555081600160008054815260200190815260200160002060020181905550806001600080548152602001908152602001600020600301819055506000808154809291906102c59061058b565b91905055507ffab0e42748281d7ded0b8035c108061734a19fc87373b21ab917a4550826cbaf338484846040516102ff94939291906104b4565b60405180910390a1505050565b8060016000848152602001908152602001600020600301819055507f77645ddfd7b70fdfc29e42a9f4ca6b753a8252dba7eef199df0f93f1db5d36458282604051610358929190610514565b60405180910390a15050565b60008135905061037381610603565b92915050565b6000813590506103888161061a565b92915050565b6000806000606084860312156103a357600080fd5b60006103b186828701610364565b93505060206103c286828701610379565b92505060406103d386828701610379565b9150509250925092565b6000602082840312156103ef57600080fd5b60006103fd84828501610379565b91505092915050565b6000806040838503121561041957600080fd5b600061042785828601610379565b925050602061043885828601610379565b9150509250929050565b61044b8161054f565b82525050565b61045a8161053d565b82525050565b61046981610581565b82525050565b60006080820190506104846000830187610442565b6104916020830186610451565b61049e6040830185610460565b6104ab6060830184610460565b95945050505050565b60006080820190506104c96000830187610451565b6104d66020830186610442565b6104e36040830185610460565b6104f06060830184610460565b95945050505050565b600060208201905061050e6000830184610460565b92915050565b60006040820190506105296000830185610460565b6105366020830184610460565b9392505050565b600061054882610561565b9050919050565b600061055a82610561565b9050919050565b600073ffffffffffffffffffffffffffffffffffffffff82169050919050565b6000819050919050565b600061059682610581565b91507fffffffffffffffffffffffffffffffffffffffffffffffffffffffffffffffff8214156105c9576105c86105d4565b5b600182019050919050565b7f4e487b7100000000000000000000000000000000000000000000000000000000600052601160045260246000fd5b61060c8161054f565b811461061757600080fd5b50565b61062381610581565b811461062e57600080fd5b5056fea26469706673582212203bffbbe0e5ada5506772ea0edafc903996b4aafd6cfaa40b681c52c5f71b774a64736f6c63430008000033",
  "immutableReferences": {},
  "source": "// SPDX-License-Identifier: GPL-3.0\npragma solidity ^0.8.0;\n\ncontract ContractManager {\n  struct Contract {\n    address payable freelancer;\n    address client;\n    uint deadline;\n    uint payment;\n  }\n\n  // tracks all contracts existing on platform, maps contractID to contract struct\n  uint256 public contractID = 0;\n  mapping (uint256 => Contract) public contracts;\n\n  function createContract(address payable _freelancer, uint _deadline, uint _payment) public {\n    // initialize contract metadata\n    contracts[contractID].freelancer = _freelancer;\n    contracts[contractID].client = msg.sender;\n    contracts[contractID].deadline = _deadline;\n    contracts[contractID].payment = _payment;\n\n    // increment ID for next contract\n    contractID++;\n\n    emit ContractCreated(msg.sender, _freelancer, _deadline, _payment);\n  }\n\n  function changeDeadline(uint _contractID, uint _newDeadline) public {\n    // require signatures of all parties\n    contracts[_contractID].deadline = _newDeadline;\n    emit DeadlineChanged(_contractID, _newDeadline);\n  }\n\n  function changePaymentAmount(uint _contractID, uint _newPaymentAmount) public {\n    // require sigs of all parties\n    contracts[_contractID].payment = _newPaymentAmount;\n    emit PaymentChanged(_contractID, _newPaymentAmount);\n  }\n\n  event ContractCreated(address client, address payable freelancer, uint deadline, uint payment);\n  event DeadlineChanged(uint contractID, uint deadline);\n  event PaymentChanged(uint contractID, uint payment);\n}",
  "sourcePath": "/home/victor/kairos/backend/contracts/ContractManager.sol",
  "compiler": {
    "name": "solc",
    "version": "0.8.0+commit.c7dfd78e.Emscripten.clang"
  },
  "schemaVersion": "3.3.4",
  "updatedAt": "2021-06-28T16:16:00.594Z",
  "devdoc": {
    "kind": "dev",
    "methods": {},
    "version": 1
  },
  "userdoc": {
    "kind": "user",
    "methods": {},
    "version": 1
  }
}