{
  "contractName": "Escrow",
  "abi": [
    {
      "anonymous": false,
      "inputs": [
        {
          "indexed": true,
          "internalType": "contract IArbitrator",
          "name": "_arbitrator",
          "type": "address"
        },
        {
          "indexed": true,
          "internalType": "uint256",
          "name": "_disputeID",
          "type": "uint256"
        },
        {
          "indexed": false,
          "internalType": "uint256",
          "name": "_metaEvidenceID",
          "type": "uint256"
        },
        {
          "indexed": false,
          "internalType": "uint256",
          "name": "_evidenceGroupID",
          "type": "uint256"
        }
      ],
      "name": "Dispute",
      "type": "event"
    },
    {
      "anonymous": false,
      "inputs": [
        {
          "indexed": true,
          "internalType": "contract IArbitrator",
          "name": "_arbitrator",
          "type": "address"
        },
        {
          "indexed": true,
          "internalType": "uint256",
          "name": "_evidenceGroupID",
          "type": "uint256"
        },
        {
          "indexed": true,
          "internalType": "address",
          "name": "_party",
          "type": "address"
        },
        {
          "indexed": false,
          "internalType": "string",
          "name": "_evidence",
          "type": "string"
        }
      ],
      "name": "Evidence",
      "type": "event"
    },
    {
      "anonymous": false,
      "inputs": [
        {
          "indexed": true,
          "internalType": "uint256",
          "name": "_metaEvidenceID",
          "type": "uint256"
        },
        {
          "indexed": false,
          "internalType": "string",
          "name": "_evidence",
          "type": "string"
        }
      ],
      "name": "MetaEvidence",
      "type": "event"
    },
    {
      "anonymous": false,
      "inputs": [
        {
          "indexed": true,
          "internalType": "contract IArbitrator",
          "name": "_arbitrator",
          "type": "address"
        },
        {
          "indexed": true,
          "internalType": "uint256",
          "name": "_disputeID",
          "type": "uint256"
        },
        {
          "indexed": false,
          "internalType": "uint256",
          "name": "_ruling",
          "type": "uint256"
        }
      ],
      "name": "Ruling",
      "type": "event"
    },
    {
      "inputs": [
        {
          "internalType": "uint256",
          "name": "",
          "type": "uint256"
        }
      ],
      "name": "contracts",
      "outputs": [
        {
          "internalType": "address payable",
          "name": "payer",
          "type": "address"
        },
        {
          "internalType": "address payable",
          "name": "payee",
          "type": "address"
        },
        {
          "internalType": "contract IArbitrator",
          "name": "arbitrator",
          "type": "address"
        },
        {
          "internalType": "enum Escrow.Status",
          "name": "status",
          "type": "uint8"
        },
        {
          "internalType": "uint256",
          "name": "value",
          "type": "uint256"
        },
        {
          "internalType": "uint256",
          "name": "disputeID",
          "type": "uint256"
        },
        {
          "internalType": "uint256",
          "name": "createdAt",
          "type": "uint256"
        },
        {
          "internalType": "uint256",
          "name": "reclaimedAt",
          "type": "uint256"
        },
        {
          "internalType": "uint256",
          "name": "payerFeeDeposit",
          "type": "uint256"
        },
        {
          "internalType": "uint256",
          "name": "payeeFeeDeposit",
          "type": "uint256"
        },
        {
          "internalType": "uint256",
          "name": "reclamationPeriod",
          "type": "uint256"
        },
        {
          "internalType": "uint256",
          "name": "arbitrationFeeDepositPeriod",
          "type": "uint256"
        }
      ],
      "stateMutability": "view",
      "type": "function"
    },
    {
      "inputs": [],
      "name": "defaultArbitrator",
      "outputs": [
        {
          "internalType": "contract IArbitrator",
          "name": "",
          "type": "address"
        }
      ],
      "stateMutability": "view",
      "type": "function"
    },
    {
      "inputs": [
        {
          "internalType": "address payable",
          "name": "_payee",
          "type": "address"
        },
        {
          "internalType": "string",
          "name": "_metaEvidence",
          "type": "string"
        },
        {
          "internalType": "uint256",
          "name": "_reclamationPeriod",
          "type": "uint256"
        },
        {
          "internalType": "uint256",
          "name": "_arbitrationFeeDepositPeriod",
          "type": "uint256"
        }
      ],
      "name": "createNewContract",
      "outputs": [
        {
          "internalType": "uint256",
          "name": "contractID",
          "type": "uint256"
        }
      ],
      "stateMutability": "payable",
      "type": "function"
    },
    {
      "inputs": [
        {
          "internalType": "uint256",
          "name": "_contractID",
          "type": "uint256"
        }
      ],
      "name": "releaseFunds",
      "outputs": [],
      "stateMutability": "nonpayable",
      "type": "function"
    },
    {
      "inputs": [
        {
          "internalType": "uint256",
          "name": "_disputeID",
          "type": "uint256"
        },
        {
          "internalType": "uint256",
          "name": "_ruling",
          "type": "uint256"
        }
      ],
      "name": "rule",
      "outputs": [],
      "stateMutability": "nonpayable",
      "type": "function"
    },
    {
      "inputs": [
        {
          "internalType": "uint256",
          "name": "_contractID",
          "type": "uint256"
        },
        {
          "internalType": "string",
          "name": "_evidence",
          "type": "string"
        }
      ],
      "name": "submitEvidence",
      "outputs": [],
      "stateMutability": "nonpayable",
      "type": "function"
    },
    {
      "inputs": [],
      "name": "contractBalance",
      "outputs": [
        {
          "internalType": "uint256",
          "name": "",
          "type": "uint256"
        }
      ],
      "stateMutability": "view",
      "type": "function"
    }
  ],
  "bytecode": "0x60806040527360b2abfdfad9c0873242f59f2a8c32a3cc682f806000806101000a81548173ffffffffffffffffffffffffffffffffffffffff021916908373ffffffffffffffffffffffffffffffffffffffff16021790555034801561006457600080fd5b506118a9806100746000396000f3fe6080604052600436106100705760003560e01c80634e97202e1161004e5780634e97202e1461010f5780638b7afe2e1461013f578063a6a7f0eb1461016a578063db0f267b1461019357610070565b8063311a6c5614610075578063474da79a1461009e5780634d68282f146100e6575b600080fd5b34801561008157600080fd5b5061009c600480360381019061009791906110a4565b6101be565b005b3480156100aa57600080fd5b506100c560048036038101906100c09190611027565b61060c565b6040516100dd9c9b9a999897969594939291906113d3565b60405180910390f35b3480156100f257600080fd5b5061010d60048036038101906101089190611027565b6106e9565b005b61012960048036038101906101249190610fac565b61096c565b60405161013691906115aa565b60405180910390f35b34801561014b57600080fd5b50610154610c63565b60405161016191906115aa565b60405180910390f35b34801561017657600080fd5b50610191600480360381019061018c9190611050565b610c6b565b005b34801561019f57600080fd5b506101a8610ef6565b6040516101b5919061148d565b60405180910390f35b600060026000848152602001908152602001600020549050600060018281548110610212577f4e487b7100000000000000000000000000000000000000000000000000000000600052603260045260246000fd5b90600052602060002090600b020190508060020160009054906101000a900473ffffffffffffffffffffffffffffffffffffffff1673ffffffffffffffffffffffffffffffffffffffff163373ffffffffffffffffffffffffffffffffffffffff16146102b4576040517f08c379a00000000000000000000000000000000000000000000000000000000081526004016102ab9061152a565b60405180910390fd5b600260038111156102ee577f4e487b7100000000000000000000000000000000000000000000000000000000600052602160045260246000fd5b8160020160149054906101000a900460ff166003811115610338577f4e487b7100000000000000000000000000000000000000000000000000000000600052602160045260246000fd5b14610378576040517f08c379a000000000000000000000000000000000000000000000000000000000815260040161036f9061158a565b60405180910390fd5b60028311156103bc576040517f08c379a00000000000000000000000000000000000000000000000000000000081526004016103b39061156a565b60405180910390fd5b60038160020160146101000a81548160ff0219169083600381111561040a577f4e487b7100000000000000000000000000000000000000000000000000000000600052602160045260246000fd5b021790555060016002811115610449577f4e487b7100000000000000000000000000000000000000000000000000000000600052602160045260246000fd5b8314156104d3578060000160009054906101000a900473ffffffffffffffffffffffffffffffffffffffff1673ffffffffffffffffffffffffffffffffffffffff166108fc826007015483600301546104a29190611642565b9081150290604051600060405180830381858888f193505050501580156104cd573d6000803e3d6000fd5b50610593565b60028081111561050c577f4e487b7100000000000000000000000000000000000000000000000000000000600052602160045260246000fd5b831415610592578060010160009054906101000a900473ffffffffffffffffffffffffffffffffffffffff1673ffffffffffffffffffffffffffffffffffffffff166108fc826008015483600301546105659190611642565b9081150290604051600060405180830381858888f19350505050158015610590573d6000803e3d6000fd5b505b5b838160020160009054906101000a900473ffffffffffffffffffffffffffffffffffffffff1673ffffffffffffffffffffffffffffffffffffffff167f394027a5fa6e098a1191094d1719d6929b9abc535fcc0c8f448d6a4e75622276856040516105fe91906115aa565b60405180910390a350505050565b6001818154811061061c57600080fd5b90600052602060002090600b02016000915090508060000160009054906101000a900473ffffffffffffffffffffffffffffffffffffffff16908060010160009054906101000a900473ffffffffffffffffffffffffffffffffffffffff16908060020160009054906101000a900473ffffffffffffffffffffffffffffffffffffffff16908060020160149054906101000a900460ff169080600301549080600401549080600501549080600601549080600701549080600801549080600901549080600a015490508c565b600060018281548110610725577f4e487b7100000000000000000000000000000000000000000000000000000000600052603260045260246000fd5b90600052602060002090600b020190506000600381111561076f577f4e487b7100000000000000000000000000000000000000000000000000000000600052602160045260246000fd5b8160020160149054906101000a900460ff1660038111156107b9577f4e487b7100000000000000000000000000000000000000000000000000000000600052602160045260246000fd5b146107f9576040517f08c379a00000000000000000000000000000000000000000000000000000000081526004016107f0906114ca565b60405180910390fd5b8060000160009054906101000a900473ffffffffffffffffffffffffffffffffffffffff1673ffffffffffffffffffffffffffffffffffffffff163373ffffffffffffffffffffffffffffffffffffffff16146108a65780600901548160050154426108659190611698565b116108a5576040517f08c379a000000000000000000000000000000000000000000000000000000000815260040161089c906114ea565b60405180910390fd5b5b60038160020160146101000a81548160ff021916908360038111156108f4577f4e487b7100000000000000000000000000000000000000000000000000000000600052602160045260246000fd5b02179055508060010160009054906101000a900473ffffffffffffffffffffffffffffffffffffffff1673ffffffffffffffffffffffffffffffffffffffff166108fc82600301549081150290604051600060405180830381858888f19350505050158015610967573d6000803e3d6000fd5b505050565b60006001805490507f61606860eb6c87306811e2695215385101daab53bd6ab4e9f9049aead9363c7d856040516109a391906114a8565b60405180910390a260016040518061018001604052803373ffffffffffffffffffffffffffffffffffffffff1681526020018773ffffffffffffffffffffffffffffffffffffffff16815260200160008054906101000a900473ffffffffffffffffffffffffffffffffffffffff1673ffffffffffffffffffffffffffffffffffffffff16815260200160006003811115610a67577f4e487b7100000000000000000000000000000000000000000000000000000000600052602160045260246000fd5b8152602001348152602001600081526020014281526020016000815260200160008152602001600081526020018581526020018481525090806001815401808255809150506001900390600052602060002090600b020160009091909190915060008201518160000160006101000a81548173ffffffffffffffffffffffffffffffffffffffff021916908373ffffffffffffffffffffffffffffffffffffffff16021790555060208201518160010160006101000a81548173ffffffffffffffffffffffffffffffffffffffff021916908373ffffffffffffffffffffffffffffffffffffffff16021790555060408201518160020160006101000a81548173ffffffffffffffffffffffffffffffffffffffff021916908373ffffffffffffffffffffffffffffffffffffffff16021790555060608201518160020160146101000a81548160ff02191690836003811115610bed577f4e487b7100000000000000000000000000000000000000000000000000000000600052602160045260246000fd5b02179055506080820151816003015560a0820151816004015560c0820151816005015560e0820151816006015561010082015181600701556101208201518160080155610140820151816009015561016082015181600a0155505060018080549050610c599190611698565b9050949350505050565b600047905090565b600060018381548110610ca7577f4e487b7100000000000000000000000000000000000000000000000000000000600052603260045260246000fd5b90600052602060002090600b02019050600380811115610cf0577f4e487b7100000000000000000000000000000000000000000000000000000000600052602160045260246000fd5b8160020160149054906101000a900460ff166003811115610d3a577f4e487b7100000000000000000000000000000000000000000000000000000000600052602160045260246000fd5b1415610d7b576040517f08c379a0000000000000000000000000000000000000000000000000000000008152600401610d729061154a565b60405180910390fd5b8060000160009054906101000a900473ffffffffffffffffffffffffffffffffffffffff1673ffffffffffffffffffffffffffffffffffffffff163373ffffffffffffffffffffffffffffffffffffffff161480610e2857508060010160009054906101000a900473ffffffffffffffffffffffffffffffffffffffff1673ffffffffffffffffffffffffffffffffffffffff163373ffffffffffffffffffffffffffffffffffffffff16145b610e67576040517f08c379a0000000000000000000000000000000000000000000000000000000008152600401610e5e9061150a565b60405180910390fd5b3373ffffffffffffffffffffffffffffffffffffffff16838260020160009054906101000a900473ffffffffffffffffffffffffffffffffffffffff1673ffffffffffffffffffffffffffffffffffffffff167fdccf2f8b2cc26eafcd61905cba744cff4b81d14740725f6376390dc6298a6a3c85604051610ee991906114a8565b60405180910390a4505050565b60008054906101000a900473ffffffffffffffffffffffffffffffffffffffff1681565b6000610f2d610f28846115f6565b6115c5565b905082815260208101848484011115610f4557600080fd5b610f50848285611751565b509392505050565b600081359050610f6781611845565b92915050565b600082601f830112610f7e57600080fd5b8135610f8e848260208601610f1a565b91505092915050565b600081359050610fa68161185c565b92915050565b60008060008060808587031215610fc257600080fd5b6000610fd087828801610f58565b945050602085013567ffffffffffffffff811115610fed57600080fd5b610ff987828801610f6d565b935050604061100a87828801610f97565b925050606061101b87828801610f97565b91505092959194509250565b60006020828403121561103957600080fd5b600061104784828501610f97565b91505092915050565b6000806040838503121561106357600080fd5b600061107185828601610f97565b925050602083013567ffffffffffffffff81111561108e57600080fd5b61109a85828601610f6d565b9150509250929050565b600080604083850312156110b757600080fd5b60006110c585828601610f97565b92505060206110d685828601610f97565b9150509250929050565b6110e9816116cc565b82525050565b6110f88161171b565b82525050565b6111078161173f565b82525050565b600061111882611626565b6111228185611631565b9350611132818560208601611760565b61113b81611820565b840191505092915050565b6000611153602383611631565b91507f5472616e73616374696f6e206973206e6f7420696e20696e697469616c20737460008301527f61746500000000000000000000000000000000000000000000000000000000006020830152604082019050919050565b60006111b9601f83611631565b91507f5061796572207374696c6c206861732074696d6520746f207265636c61696d006000830152602082019050919050565b60006111f9603083611631565b91507f5468697264207061727469657320617265206e6f7420616c6c6f77656420746f60008301527f207375626d69742065766964656e6365000000000000000000000000000000006020830152604082019050919050565b600061125f602883611631565b91507f4f6e6c79207468652061726269747261746f722063616e20657865637574652060008301527f612072756c696e670000000000000000000000000000000000000000000000006020830152604082019050919050565b60006112c5602183611631565b91507f5472616e73616374696f6e206e6f7420696e207265736f6c766564207374617460008301527f65000000000000000000000000000000000000000000000000000000000000006020830152604082019050919050565b600061132b601483611631565b91507f52756c696e67206f7574206f6620626f756e64730000000000000000000000006000830152602082019050919050565b600061136b602d83611631565b91507f54686572652073686f756c642062652061206469737075746520746f2065786560008301527f6375746520612072756c696e67000000000000000000000000000000000000006020830152604082019050919050565b6113cd81611711565b82525050565b6000610180820190506113e9600083018f6110e0565b6113f6602083018e6110e0565b611403604083018d6110ef565b611410606083018c6110fe565b61141d608083018b6113c4565b61142a60a083018a6113c4565b61143760c08301896113c4565b61144460e08301886113c4565b6114526101008301876113c4565b6114606101208301866113c4565b61146e6101408301856113c4565b61147c6101608301846113c4565b9d9c50505050505050505050505050565b60006020820190506114a260008301846110ef565b92915050565b600060208201905081810360008301526114c2818461110d565b905092915050565b600060208201905081810360008301526114e381611146565b9050919050565b60006020820190508181036000830152611503816111ac565b9050919050565b60006020820190508181036000830152611523816111ec565b9050919050565b6000602082019050818103600083015261154381611252565b9050919050565b60006020820190508181036000830152611563816112b8565b9050919050565b600060208201905081810360008301526115838161131e565b9050919050565b600060208201905081810360008301526115a38161135e565b9050919050565b60006020820190506115bf60008301846113c4565b92915050565b6000604051905081810181811067ffffffffffffffff821117156115ec576115eb6117f1565b5b8060405250919050565b600067ffffffffffffffff821115611611576116106117f1565b5b601f19601f8301169050602081019050919050565b600081519050919050565b600082825260208201905092915050565b600061164d82611711565b915061165883611711565b9250827fffffffffffffffffffffffffffffffffffffffffffffffffffffffffffffffff0382111561168d5761168c611793565b5b828201905092915050565b60006116a382611711565b91506116ae83611711565b9250828210156116c1576116c0611793565b5b828203905092915050565b60006116d7826116f1565b9050919050565b60008190506116ec82611831565b919050565b600073ffffffffffffffffffffffffffffffffffffffff82169050919050565b6000819050919050565b60006117268261172d565b9050919050565b6000611738826116f1565b9050919050565b600061174a826116de565b9050919050565b82818337600083830152505050565b60005b8381101561177e578082015181840152602081019050611763565b8381111561178d576000848401525b50505050565b7f4e487b7100000000000000000000000000000000000000000000000000000000600052601160045260246000fd5b7f4e487b7100000000000000000000000000000000000000000000000000000000600052602160045260246000fd5b7f4e487b7100000000000000000000000000000000000000000000000000000000600052604160045260246000fd5b6000601f19601f8301169050919050565b60048110611842576118416117c2565b5b50565b61184e816116cc565b811461185957600080fd5b50565b61186581611711565b811461187057600080fd5b5056fea264697066735822122088d64828e97811c250b10693b0aa0cc509e8edc200637265d65979cb2d11ea8064736f6c63430008000033",
  "immutableReferences": {},
  "source": "// SPDX-License-Identifier: GPL-3.0\npragma solidity ^0.8.0;\n\nimport \"./interfaces/IArbitrable.sol\";\nimport \"./interfaces/IArbitrator.sol\";\nimport \"./interfaces/IEvidence.sol\";\n\ncontract Escrow is IArbitrable, IEvidence {\n  enum Status {Initial, Reclaimed, Disputed, Resolved}\n  enum RulingOptions {RefusedToArbitrate, PayerWins, PayeeWins}\n  uint256 constant numberOfRulingOptions = 2;\n  // for now, default arbitrator is Kleros Court on Kovan (later change to mainnet)\n  // why does wrapping address in IArbitrator work??\n  IArbitrator public defaultArbitrator = IArbitrator(0x60B2AbfDfaD9c0873242f59f2A8c32A3Cc682f80);\n\n  struct Contract {\n    address payable payer;\n    address payable payee;\n    IArbitrator arbitrator;\n    Status status;\n    uint256 value;\n    uint256 disputeID;\n    uint256 createdAt;\n    uint256 reclaimedAt;\n    uint256 payerFeeDeposit;\n    uint256 payeeFeeDeposit;\n    uint256 reclamationPeriod;\n    uint256 arbitrationFeeDepositPeriod;\n  }\n\n  Contract[] public contracts;\n  mapping (uint256 => uint256) disputeIDtoContractID;\n\n  function createNewContract(\n    address payable _payee,\n    string memory _metaEvidence, \n    uint256 _reclamationPeriod, \n    uint256 _arbitrationFeeDepositPeriod\n  ) public payable returns (uint256 contractID) {\n    emit MetaEvidence(contracts.length, _metaEvidence);\n\n    contracts.push(\n      Contract({\n        payer: payable(msg.sender),\n        payee: _payee,\n        arbitrator: defaultArbitrator,\n        status: Status.Initial,\n        value: msg.value,\n        disputeID: 0,\n        createdAt: block.timestamp,\n        reclaimedAt: 0,\n        payerFeeDeposit: 0,\n        payeeFeeDeposit: 0,\n        reclamationPeriod: _reclamationPeriod,\n        arbitrationFeeDepositPeriod: _arbitrationFeeDepositPeriod\n      })\n    );\n\n    contractID = contracts.length - 1;\n  }\n\n  function releaseFunds(uint256 _contractID) public {\n    Contract storage transaction = contracts[_contractID];\n    require(transaction.status == Status.Initial, \"Transaction is not in initial state\");\n\n    // payee can only reclaim funds if the reclamationPeriod has passed\n    if (msg.sender != transaction.payer) {\n      require(block.timestamp - transaction.createdAt > transaction.reclamationPeriod, \"Payer still has time to reclaim\");\n    }\n\n    // payer can release funds to payee at any time\n    transaction.status = Status.Resolved;\n    transaction.payee.transfer(transaction.value);\n  }\n\n  // this is the place where we put the rules to enforce the ruling, which the arbitrator decides\n  // Note: does NOT handle refusedToArbitrate event\n  function rule(uint256 _disputeID, uint256 _ruling) override public {\n    uint256 txID = disputeIDtoContractID[_disputeID];\n    Contract storage transaction = contracts[txID];\n\n    // first check if the caller has the right to rule on the contract\n    require(msg.sender == address(transaction.arbitrator), \"Only the arbitrator can execute a ruling\");\n    // require status to be in disputed state\n    require(transaction.status == Status.Disputed, \"There should be a dispute to execute a ruling\");\n    require(_ruling <= numberOfRulingOptions, \"Ruling out of bounds\");\n\n    transaction.status = Status.Resolved;\n    // return contract balance (escrowFunds + arbitratorFee) to whoever won\n    if (_ruling == uint256(RulingOptions.PayerWins)) {\n      transaction.payer.transfer(transaction.value + transaction.payerFeeDeposit);\n    } else if (_ruling == uint256(RulingOptions.PayeeWins)) {\n      transaction.payee.transfer(transaction.value + transaction.payeeFeeDeposit);\n    }\n    emit Ruling(transaction.arbitrator, _disputeID, _ruling);\n  }\n\n  function submitEvidence(uint256 _contractID, string memory _evidence) public {\n    Contract storage transaction = contracts[_contractID];\n    require(transaction.status != Status.Resolved, \"Transaction not in resolved state\");\n    require(msg.sender == transaction.payer || msg.sender == transaction.payee, \"Third parties are not allowed to submit evidence\");\n    emit Evidence(transaction.arbitrator, _contractID, msg.sender, _evidence);\n  }\n\n  function contractBalance() public view returns (uint) {\n    return address(this).balance;\n  }\n}\n\n// TODO\n// - Test smart contracts in truffle\n// - test smart contracts against centralized arbitrator on kleros kovan\n// - figure out \"extraData\" implementation (if necessary), ie, # of votes, subcourt IDs, etc.\n",
  "sourcePath": "/home/victor/kairos/backend/contracts/Escrow.sol",
  "compiler": {
    "name": "solc",
    "version": "0.8.0+commit.c7dfd78e.Emscripten.clang"
  },
  "schemaVersion": "3.3.4",
  "updatedAt": "2021-07-05T15:18:05.496Z",
  "devdoc": {
    "kind": "dev",
    "methods": {
      "rule(uint256,uint256)": {
        "details": "Give a ruling for a dispute. Must be called by the arbitrator. The purpose of this function is to ensure that the address calling it has the right to rule on the contract.",
        "params": {
          "_disputeID": "ID of the dispute in the Arbitrator contract.",
          "_ruling": "Ruling given by the arbitrator. Note that 0 is reserved for \"Not able/wanting to make a decision\"."
        }
      }
    },
    "version": 1
  },
  "userdoc": {
    "kind": "user",
    "methods": {},
    "version": 1
  }
}