{
  "contractName": "EscrowManager",
  "abi": [
    {
      "anonymous": false,
      "inputs": [
        {
          "indexed": false,
          "internalType": "address",
          "name": "client",
          "type": "address"
        },
        {
          "indexed": false,
          "internalType": "address payable",
          "name": "freelancer",
          "type": "address"
        },
        {
          "indexed": false,
          "internalType": "uint256",
          "name": "deadline",
          "type": "uint256"
        },
        {
          "indexed": false,
          "internalType": "uint256",
          "name": "payment",
          "type": "uint256"
        }
      ],
      "name": "ContractCreated",
      "type": "event"
    },
    {
      "anonymous": false,
      "inputs": [
        {
          "indexed": false,
          "internalType": "uint256",
          "name": "contractID",
          "type": "uint256"
        },
        {
          "indexed": false,
          "internalType": "uint256",
          "name": "deadline",
          "type": "uint256"
        }
      ],
      "name": "DeadlineChanged",
      "type": "event"
    },
    {
      "anonymous": false,
      "inputs": [
        {
          "indexed": false,
          "internalType": "uint256",
          "name": "contractID",
          "type": "uint256"
        },
        {
          "indexed": false,
          "internalType": "uint256",
          "name": "amount",
          "type": "uint256"
        }
      ],
      "name": "EscrowFundsDeposited",
      "type": "event"
    },
    {
      "anonymous": false,
      "inputs": [
        {
          "indexed": false,
          "internalType": "uint256",
          "name": "contractID",
          "type": "uint256"
        },
        {
          "indexed": false,
          "internalType": "uint256",
          "name": "payment",
          "type": "uint256"
        }
      ],
      "name": "PaymentChanged",
      "type": "event"
    },
    {
      "inputs": [
        {
          "internalType": "uint256",
          "name": "_contractID",
          "type": "uint256"
        },
        {
          "internalType": "uint256",
          "name": "_newDeadline",
          "type": "uint256"
        }
      ],
      "name": "changeDeadline",
      "outputs": [],
      "stateMutability": "nonpayable",
      "type": "function"
    },
    {
      "inputs": [
        {
          "internalType": "uint256",
          "name": "_contractID",
          "type": "uint256"
        },
        {
          "internalType": "uint256",
          "name": "_newPaymentAmount",
          "type": "uint256"
        }
      ],
      "name": "changePaymentAmount",
      "outputs": [],
      "stateMutability": "nonpayable",
      "type": "function"
    },
    {
      "inputs": [],
      "name": "contractID",
      "outputs": [
        {
          "internalType": "uint256",
          "name": "",
          "type": "uint256"
        }
      ],
      "stateMutability": "view",
      "type": "function"
    },
    {
      "inputs": [
        {
          "internalType": "uint256",
          "name": "",
          "type": "uint256"
        }
      ],
      "name": "contracts",
      "outputs": [
        {
          "internalType": "address payable",
          "name": "freelancer",
          "type": "address"
        },
        {
          "internalType": "address",
          "name": "client",
          "type": "address"
        },
        {
          "internalType": "uint256",
          "name": "deadline",
          "type": "uint256"
        },
        {
          "internalType": "uint256",
          "name": "payment",
          "type": "uint256"
        }
      ],
      "stateMutability": "view",
      "type": "function"
    },
    {
      "inputs": [
        {
          "internalType": "address payable",
          "name": "_freelancer",
          "type": "address"
        },
        {
          "internalType": "uint256",
          "name": "_deadline",
          "type": "uint256"
        },
        {
          "internalType": "uint256",
          "name": "_payment",
          "type": "uint256"
        }
      ],
      "name": "createContract",
      "outputs": [],
      "stateMutability": "nonpayable",
      "type": "function"
    },
    {
      "stateMutability": "payable",
      "type": "receive"
    },
    {
      "inputs": [
        {
          "internalType": "uint256",
          "name": "_contractID",
          "type": "uint256"
        },
        {
          "internalType": "uint256",
          "name": "_amount",
          "type": "uint256"
        }
      ],
      "name": "depositFundsToEscrow",
      "outputs": [],
      "stateMutability": "nonpayable",
      "type": "function"
    },
    {
      "inputs": [
        {
          "internalType": "uint256",
          "name": "_contractID",
          "type": "uint256"
        }
      ],
      "name": "payFreelancer",
      "outputs": [],
      "stateMutability": "nonpayable",
      "type": "function"
    },
    {
      "inputs": [
        {
          "internalType": "uint256",
          "name": "_contractID",
          "type": "uint256"
        },
        {
          "internalType": "address payable",
          "name": "_recipient",
          "type": "address"
        }
      ],
      "name": "reimburseFunds",
      "outputs": [],
      "stateMutability": "nonpayable",
      "type": "function"
    }
  ],
  "bytecode": "0x60806040526000805534801561001457600080fd5b50610aeb806100246000396000f3fe60806040526004361061007f5760003560e01c8063529402b61161004e578063529402b61461014657806391f30bd41461016f578063b0d10c391461019a578063c29b39b8146101c357610086565b80630814f5551461008b5780631786e695146100b4578063474da79a146100dd5780634de747151461011d57610086565b3661008657005b600080fd5b34801561009757600080fd5b506100b260048036038101906100ad91906107ab565b6101ec565b005b3480156100c057600080fd5b506100db60048036038101906100d691906107ab565b610241565b005b3480156100e957600080fd5b5061010460048036038101906100ff9190610746565b610299565b6040516101149493929190610883565b60405180910390f35b34801561012957600080fd5b50610144600480360381019061013f919061076f565b610309565b005b34801561015257600080fd5b5061016d60048036038101906101689190610746565b610400565b005b34801561017b57600080fd5b50610184610532565b604051610191919061092d565b60405180910390f35b3480156101a657600080fd5b506101c160048036038101906101bc91906106f7565b610538565b005b3480156101cf57600080fd5b506101ea60048036038101906101e591906107ab565b610675565b005b8060026000848152602001908152602001600020819055507f768e7ec811303ff02fe9e265c649c4c0dc9e47cc11cf5392ff9be7f108b68cd08282604051610235929190610948565b60405180910390a15050565b8060016000848152602001908152602001600020600201819055507fb50b49938e915b0ab39e99a2d0810e190d6a377647ef06ec45b1e54b892968a6828260405161028d929190610948565b60405180910390a15050565b60016020528060005260406000206000915090508060000160009054906101000a900473ffffffffffffffffffffffffffffffffffffffff16908060010160009054906101000a900473ffffffffffffffffffffffffffffffffffffffff16908060020154908060030154905084565b6000600260008481526020019081526020016000205490506000808373ffffffffffffffffffffffffffffffffffffffff16836040516103489061086e565b60006040518083038185875af1925050503d8060008114610385576040519150601f19603f3d011682016040523d82523d6000602084013e61038a565b606091505b5091509150816103cf576040517f08c379a00000000000000000000000000000000000000000000000000000000081526004016103c69061090d565b60405180910390fd5b826002600087815260200190815260200160002060008282546103f2919061098d565b925050819055505050505050565b60006002600083815260200190815260200160002054905060006001600084815260200190815260200160002060000160009054906101000a900473ffffffffffffffffffffffffffffffffffffffff1690506000808273ffffffffffffffffffffffffffffffffffffffff168460405161047a9061086e565b60006040518083038185875af1925050503d80600081146104b7576040519150601f19603f3d011682016040523d82523d6000602084013e6104bc565b606091505b509150915081610501576040517f08c379a00000000000000000000000000000000000000000000000000000000081526004016104f89061090d565b60405180910390fd5b83600260008781526020019081526020016000206000828254610524919061098d565b925050819055505050505050565b60005481565b82600160008054815260200190815260200160002060000160006101000a81548173ffffffffffffffffffffffffffffffffffffffff021916908373ffffffffffffffffffffffffffffffffffffffff16021790555033600160008054815260200190815260200160002060010160006101000a81548173ffffffffffffffffffffffffffffffffffffffff021916908373ffffffffffffffffffffffffffffffffffffffff160217905550816001600080548152602001908152602001600020600201819055508060016000805481526020019081526020016000206003018190555060008081548092919061062e90610a0f565b91905055507ffab0e42748281d7ded0b8035c108061734a19fc87373b21ab917a4550826cbaf3384848460405161066894939291906108c8565b60405180910390a1505050565b8060016000848152602001908152602001600020600301819055507f77645ddfd7b70fdfc29e42a9f4ca6b753a8252dba7eef199df0f93f1db5d364582826040516106c1929190610948565b60405180910390a15050565b6000813590506106dc81610a87565b92915050565b6000813590506106f181610a9e565b92915050565b60008060006060848603121561070c57600080fd5b600061071a868287016106cd565b935050602061072b868287016106e2565b925050604061073c868287016106e2565b9150509250925092565b60006020828403121561075857600080fd5b6000610766848285016106e2565b91505092915050565b6000806040838503121561078257600080fd5b6000610790858286016106e2565b92505060206107a1858286016106cd565b9150509250929050565b600080604083850312156107be57600080fd5b60006107cc858286016106e2565b92505060206107dd858286016106e2565b9150509250929050565b6107f0816109d3565b82525050565b6107ff816109c1565b82525050565b600061081260148361097c565b91507f4661696c656420746f2073656e642065746865720000000000000000000000006000830152602082019050919050565b6000610852600083610971565b9150600082019050919050565b61086881610a05565b82525050565b600061087982610845565b9150819050919050565b600060808201905061089860008301876107e7565b6108a560208301866107f6565b6108b2604083018561085f565b6108bf606083018461085f565b95945050505050565b60006080820190506108dd60008301876107f6565b6108ea60208301866107e7565b6108f7604083018561085f565b610904606083018461085f565b95945050505050565b6000602082019050818103600083015261092681610805565b9050919050565b6000602082019050610942600083018461085f565b92915050565b600060408201905061095d600083018561085f565b61096a602083018461085f565b9392505050565b600081905092915050565b600082825260208201905092915050565b600061099882610a05565b91506109a383610a05565b9250828210156109b6576109b5610a58565b5b828203905092915050565b60006109cc826109e5565b9050919050565b60006109de826109e5565b9050919050565b600073ffffffffffffffffffffffffffffffffffffffff82169050919050565b6000819050919050565b6000610a1a82610a05565b91507fffffffffffffffffffffffffffffffffffffffffffffffffffffffffffffffff821415610a4d57610a4c610a58565b5b600182019050919050565b7f4e487b7100000000000000000000000000000000000000000000000000000000600052601160045260246000fd5b610a90816109d3565b8114610a9b57600080fd5b50565b610aa781610a05565b8114610ab257600080fd5b5056fea264697066735822122087273aa5a3678dbcb8552f55f07bf47e6383f37e8e568c54cb66bc52f2e9d84964736f6c63430008000033",
  "immutableReferences": {},
  "source": "// SPDX-License-Identifier: GPL-3.0\npragma solidity ^0.8.0;\n\nimport \"./ContractManager.sol\";\n\n// ether is sent to this contract, which acts as an escrow account manager. The contract stores the ether amount\n// in a mapping linked to the contractID. This allows the escrow manager to associate escrow balances with specific\n// contracts.\n// contract holds funds in its escrow account until one of two things eventually occur:\n//    case 1) client wins a dispute\n//    case 2) freelancer and client agree that contract was completed successfully\n\n// in case 1, the escrow manager returns the escrow funds back to the client.\n// in case 2, the escrow manager pays out the escrow funds to the freelancer on behalf of the client\ncontract EscrowManager is ContractManager {\n  // maps contractID to the escrow amount of that particular contract\n  mapping (uint256 => uint256) escrowAccounts;\n\n  function depositFundsToEscrow(uint _contractID, uint _amount) public {\n    // set the balance of escrow account to given amount\n    escrowAccounts[_contractID] = _amount;\n    emit EscrowFundsDeposited(_contractID, _amount);\n  }\n\n  function payFreelancer(uint _contractID) public {\n    uint256 payment = escrowAccounts[_contractID];\n    address payable freelancer = contracts[_contractID].freelancer;\n\n    // transfer ether to freelancer from escrow account\n    (bool sent, bytes memory data) = freelancer.call{value: payment}(\"\");\n    require(sent, \"Failed to send ether\");\n\n    // deduct balance from escrow\n    escrowAccounts[_contractID] -= payment;\n  }\n\n  function reimburseFunds(uint _contractID, address payable _recipient) public {\n    uint payment = escrowAccounts[_contractID];\n    (bool sent, bytes memory data) = _recipient.call{value: payment}(\"\");\n    require(sent, \"Failed to send ether\");\n\n    // deduct balance from escrow\n    escrowAccounts[_contractID] -= payment;\n  }\n\n  receive() external payable {}\n\n  event EscrowFundsDeposited(uint contractID, uint amount);\n}\n\n// TODO\n// 1. make sure that when depositing funds ether is actually transferred to contract balance (not just manipulating numbers)\n// 2. security checks for freelancer payment (multisig of both parties)\n// 3. security checks for reimburseFunds (multisig of both parties)",
  "sourcePath": "/home/victor/kairos/backend/contracts/EscrowManager.sol",
  "compiler": {
    "name": "solc",
    "version": "0.8.0+commit.c7dfd78e.Emscripten.clang"
  },
  "schemaVersion": "3.3.4",
  "updatedAt": "2021-06-28T16:16:00.596Z",
  "devdoc": {
    "kind": "dev",
    "methods": {},
    "version": 1
  },
  "userdoc": {
    "kind": "user",
    "methods": {},
    "version": 1
  }
}