{
  "contractName": "EscrowDisputeManager",
  "abi": [
    {
      "anonymous": false,
      "inputs": [
        {
          "indexed": true,
          "internalType": "contract IArbitrator",
          "name": "_arbitrator",
          "type": "address"
        },
        {
          "indexed": true,
          "internalType": "uint256",
          "name": "_disputeID",
          "type": "uint256"
        },
        {
          "indexed": false,
          "internalType": "uint256",
          "name": "_metaEvidenceID",
          "type": "uint256"
        },
        {
          "indexed": false,
          "internalType": "uint256",
          "name": "_evidenceGroupID",
          "type": "uint256"
        }
      ],
      "name": "Dispute",
      "type": "event"
    },
    {
      "anonymous": false,
      "inputs": [
        {
          "indexed": true,
          "internalType": "contract IArbitrator",
          "name": "_arbitrator",
          "type": "address"
        },
        {
          "indexed": true,
          "internalType": "uint256",
          "name": "_evidenceGroupID",
          "type": "uint256"
        },
        {
          "indexed": true,
          "internalType": "address",
          "name": "_party",
          "type": "address"
        },
        {
          "indexed": false,
          "internalType": "string",
          "name": "_evidence",
          "type": "string"
        }
      ],
      "name": "Evidence",
      "type": "event"
    },
    {
      "anonymous": false,
      "inputs": [
        {
          "indexed": true,
          "internalType": "uint256",
          "name": "_metaEvidenceID",
          "type": "uint256"
        },
        {
          "indexed": false,
          "internalType": "string",
          "name": "_evidence",
          "type": "string"
        }
      ],
      "name": "MetaEvidence",
      "type": "event"
    },
    {
      "anonymous": false,
      "inputs": [
        {
          "indexed": true,
          "internalType": "contract IArbitrator",
          "name": "_arbitrator",
          "type": "address"
        },
        {
          "indexed": true,
          "internalType": "uint256",
          "name": "_disputeID",
          "type": "uint256"
        },
        {
          "indexed": false,
          "internalType": "uint256",
          "name": "_ruling",
          "type": "uint256"
        }
      ],
      "name": "Ruling",
      "type": "event"
    },
    {
      "inputs": [],
      "name": "contractBalance",
      "outputs": [
        {
          "internalType": "uint256",
          "name": "",
          "type": "uint256"
        }
      ],
      "stateMutability": "view",
      "type": "function"
    },
    {
      "inputs": [
        {
          "internalType": "uint256",
          "name": "",
          "type": "uint256"
        }
      ],
      "name": "contracts",
      "outputs": [
        {
          "internalType": "address payable",
          "name": "payer",
          "type": "address"
        },
        {
          "internalType": "address payable",
          "name": "payee",
          "type": "address"
        },
        {
          "internalType": "contract IArbitrator",
          "name": "arbitrator",
          "type": "address"
        },
        {
          "internalType": "enum Escrow.Status",
          "name": "status",
          "type": "uint8"
        },
        {
          "internalType": "uint256",
          "name": "value",
          "type": "uint256"
        },
        {
          "internalType": "uint256",
          "name": "disputeID",
          "type": "uint256"
        },
        {
          "internalType": "uint256",
          "name": "createdAt",
          "type": "uint256"
        },
        {
          "internalType": "uint256",
          "name": "reclaimedAt",
          "type": "uint256"
        },
        {
          "internalType": "uint256",
          "name": "payerFeeDeposit",
          "type": "uint256"
        },
        {
          "internalType": "uint256",
          "name": "payeeFeeDeposit",
          "type": "uint256"
        },
        {
          "internalType": "uint256",
          "name": "reclamationPeriod",
          "type": "uint256"
        },
        {
          "internalType": "uint256",
          "name": "arbitrationFeeDepositPeriod",
          "type": "uint256"
        }
      ],
      "stateMutability": "view",
      "type": "function"
    },
    {
      "inputs": [
        {
          "internalType": "address payable",
          "name": "_payee",
          "type": "address"
        },
        {
          "internalType": "string",
          "name": "_metaEvidence",
          "type": "string"
        },
        {
          "internalType": "uint256",
          "name": "_reclamationPeriod",
          "type": "uint256"
        },
        {
          "internalType": "uint256",
          "name": "_arbitrationFeeDepositPeriod",
          "type": "uint256"
        }
      ],
      "name": "createNewContract",
      "outputs": [
        {
          "internalType": "uint256",
          "name": "contractID",
          "type": "uint256"
        }
      ],
      "stateMutability": "payable",
      "type": "function"
    },
    {
      "inputs": [],
      "name": "defaultArbitrator",
      "outputs": [
        {
          "internalType": "contract IArbitrator",
          "name": "",
          "type": "address"
        }
      ],
      "stateMutability": "view",
      "type": "function"
    },
    {
      "inputs": [
        {
          "internalType": "uint256",
          "name": "_contractID",
          "type": "uint256"
        }
      ],
      "name": "releaseFunds",
      "outputs": [],
      "stateMutability": "nonpayable",
      "type": "function"
    },
    {
      "inputs": [
        {
          "internalType": "uint256",
          "name": "_disputeID",
          "type": "uint256"
        },
        {
          "internalType": "uint256",
          "name": "_ruling",
          "type": "uint256"
        }
      ],
      "name": "rule",
      "outputs": [],
      "stateMutability": "nonpayable",
      "type": "function"
    },
    {
      "inputs": [
        {
          "internalType": "uint256",
          "name": "_contractID",
          "type": "uint256"
        },
        {
          "internalType": "string",
          "name": "_evidence",
          "type": "string"
        }
      ],
      "name": "submitEvidence",
      "outputs": [],
      "stateMutability": "nonpayable",
      "type": "function"
    },
    {
      "inputs": [
        {
          "internalType": "uint256",
          "name": "_contractID",
          "type": "uint256"
        }
      ],
      "name": "reclaimFunds",
      "outputs": [],
      "stateMutability": "payable",
      "type": "function"
    },
    {
      "inputs": [
        {
          "internalType": "uint256",
          "name": "_contractID",
          "type": "uint256"
        }
      ],
      "name": "depositArbitrationFeeForPayee",
      "outputs": [],
      "stateMutability": "payable",
      "type": "function"
    },
    {
      "inputs": [
        {
          "internalType": "uint256",
          "name": "_contractID",
          "type": "uint256"
        }
      ],
      "name": "remainingTimeToReclaim",
      "outputs": [
        {
          "internalType": "uint256",
          "name": "",
          "type": "uint256"
        }
      ],
      "stateMutability": "view",
      "type": "function"
    },
    {
      "inputs": [
        {
          "internalType": "uint256",
          "name": "_contractID",
          "type": "uint256"
        }
      ],
      "name": "remainingTimeToDepositArbitrationFee",
      "outputs": [
        {
          "internalType": "uint256",
          "name": "",
          "type": "uint256"
        }
      ],
      "stateMutability": "view",
      "type": "function"
    }
  ],
  "bytecode": "0x60806040527360b2abfdfad9c0873242f59f2a8c32a3cc682f806000806101000a81548173ffffffffffffffffffffffffffffffffffffffff021916908373ffffffffffffffffffffffffffffffffffffffff16021790555034801561006457600080fd5b50612a29806100746000396000f3fe60806040526004361061009c5760003560e01c80638b7afe2e116100645780638b7afe2e146101a85780639db5d718146101d3578063a6a7f0eb14610210578063db0f267b14610239578063f9f161a814610264578063fa1aa68e146102805761009c565b8063311a6c56146100a1578063360cee77146100ca578063474da79a146101075780634d68282f1461014f5780634e97202e14610178575b600080fd5b3480156100ad57600080fd5b506100c860048036038101906100c39190611d18565b61029c565b005b3480156100d657600080fd5b506100f160048036038101906100ec9190611c72565b6106ea565b6040516100fe91906126c2565b60405180910390f35b34801561011357600080fd5b5061012e60048036038101906101299190611c72565b610844565b6040516101469c9b9a999897969594939291906123ab565b60405180910390f35b34801561015b57600080fd5b5061017660048036038101906101719190611c72565b610921565b005b610192600480360381019061018d9190611bf7565b610ba4565b60405161019f91906126c2565b60405180910390f35b3480156101b457600080fd5b506101bd610e9b565b6040516101ca91906126c2565b60405180910390f35b3480156101df57600080fd5b506101fa60048036038101906101f59190611c72565b610ea3565b60405161020791906126c2565b60405180910390f35b34801561021c57600080fd5b5061023760048036038101906102329190611cc4565b610ffd565b005b34801561024557600080fd5b5061024e611288565b60405161025b9190612465565b60405180910390f35b61027e60048036038101906102799190611c72565b6112ac565b005b61029a60048036038101906102959190611c72565b61183c565b005b6000600260008481526020019081526020016000205490506000600182815481106102f0577f4e487b7100000000000000000000000000000000000000000000000000000000600052603260045260246000fd5b90600052602060002090600b020190508060020160009054906101000a900473ffffffffffffffffffffffffffffffffffffffff1673ffffffffffffffffffffffffffffffffffffffff163373ffffffffffffffffffffffffffffffffffffffff1614610392576040517f08c379a000000000000000000000000000000000000000000000000000000000815260040161038990612582565b60405180910390fd5b600260038111156103cc577f4e487b7100000000000000000000000000000000000000000000000000000000600052602160045260246000fd5b8160020160149054906101000a900460ff166003811115610416577f4e487b7100000000000000000000000000000000000000000000000000000000600052602160045260246000fd5b14610456576040517f08c379a000000000000000000000000000000000000000000000000000000000815260040161044d90612662565b60405180910390fd5b600283111561049a576040517f08c379a0000000000000000000000000000000000000000000000000000000008152600401610491906125e2565b60405180910390fd5b60038160020160146101000a81548160ff021916908360038111156104e8577f4e487b7100000000000000000000000000000000000000000000000000000000600052602160045260246000fd5b021790555060016002811115610527577f4e487b7100000000000000000000000000000000000000000000000000000000600052602160045260246000fd5b8314156105b1578060000160009054906101000a900473ffffffffffffffffffffffffffffffffffffffff1673ffffffffffffffffffffffffffffffffffffffff166108fc8260070154836003015461058091906127c2565b9081150290604051600060405180830381858888f193505050501580156105ab573d6000803e3d6000fd5b50610671565b6002808111156105ea577f4e487b7100000000000000000000000000000000000000000000000000000000600052602160045260246000fd5b831415610670578060010160009054906101000a900473ffffffffffffffffffffffffffffffffffffffff1673ffffffffffffffffffffffffffffffffffffffff166108fc8260080154836003015461064391906127c2565b9081150290604051600060405180830381858888f1935050505015801561066e573d6000803e3d6000fd5b505b5b838160020160009054906101000a900473ffffffffffffffffffffffffffffffffffffffff1673ffffffffffffffffffffffffffffffffffffffff167f394027a5fa6e098a1191094d1719d6929b9abc535fcc0c8f448d6a4e75622276856040516106dc91906126c2565b60405180910390a350505050565b60008060018381548110610727577f4e487b7100000000000000000000000000000000000000000000000000000000600052603260045260246000fd5b90600052602060002090600b0201905060006003811115610771577f4e487b7100000000000000000000000000000000000000000000000000000000600052602160045260246000fd5b8160020160149054906101000a900460ff1660038111156107bb577f4e487b7100000000000000000000000000000000000000000000000000000000600052602160045260246000fd5b146107fb576040517f08c379a00000000000000000000000000000000000000000000000000000000081526004016107f290612622565b60405180910390fd5b80600901548160050154426108109190612818565b1161083957428160090154826005015461082a91906127c2565b6108349190612818565b61083c565b60005b915050919050565b6001818154811061085457600080fd5b90600052602060002090600b02016000915090508060000160009054906101000a900473ffffffffffffffffffffffffffffffffffffffff16908060010160009054906101000a900473ffffffffffffffffffffffffffffffffffffffff16908060020160009054906101000a900473ffffffffffffffffffffffffffffffffffffffff16908060020160149054906101000a900460ff169080600301549080600401549080600501549080600601549080600701549080600801549080600901549080600a015490508c565b60006001828154811061095d577f4e487b7100000000000000000000000000000000000000000000000000000000600052603260045260246000fd5b90600052602060002090600b02019050600060038111156109a7577f4e487b7100000000000000000000000000000000000000000000000000000000600052602160045260246000fd5b8160020160149054906101000a900460ff1660038111156109f1577f4e487b7100000000000000000000000000000000000000000000000000000000600052602160045260246000fd5b14610a31576040517f08c379a0000000000000000000000000000000000000000000000000000000008152600401610a28906124c2565b60405180910390fd5b8060000160009054906101000a900473ffffffffffffffffffffffffffffffffffffffff1673ffffffffffffffffffffffffffffffffffffffff163373ffffffffffffffffffffffffffffffffffffffff1614610ade578060090154816005015442610a9d9190612818565b11610add576040517f08c379a0000000000000000000000000000000000000000000000000000000008152600401610ad4906124e2565b60405180910390fd5b5b60038160020160146101000a81548160ff02191690836003811115610b2c577f4e487b7100000000000000000000000000000000000000000000000000000000600052602160045260246000fd5b02179055508060010160009054906101000a900473ffffffffffffffffffffffffffffffffffffffff1673ffffffffffffffffffffffffffffffffffffffff166108fc82600301549081150290604051600060405180830381858888f19350505050158015610b9f573d6000803e3d6000fd5b505050565b60006001805490507f61606860eb6c87306811e2695215385101daab53bd6ab4e9f9049aead9363c7d85604051610bdb9190612480565b60405180910390a260016040518061018001604052803373ffffffffffffffffffffffffffffffffffffffff1681526020018773ffffffffffffffffffffffffffffffffffffffff16815260200160008054906101000a900473ffffffffffffffffffffffffffffffffffffffff1673ffffffffffffffffffffffffffffffffffffffff16815260200160006003811115610c9f577f4e487b7100000000000000000000000000000000000000000000000000000000600052602160045260246000fd5b8152602001348152602001600081526020014281526020016000815260200160008152602001600081526020018581526020018481525090806001815401808255809150506001900390600052602060002090600b020160009091909190915060008201518160000160006101000a81548173ffffffffffffffffffffffffffffffffffffffff021916908373ffffffffffffffffffffffffffffffffffffffff16021790555060208201518160010160006101000a81548173ffffffffffffffffffffffffffffffffffffffff021916908373ffffffffffffffffffffffffffffffffffffffff16021790555060408201518160020160006101000a81548173ffffffffffffffffffffffffffffffffffffffff021916908373ffffffffffffffffffffffffffffffffffffffff16021790555060608201518160020160146101000a81548160ff02191690836003811115610e25577f4e487b7100000000000000000000000000000000000000000000000000000000600052602160045260246000fd5b02179055506080820151816003015560a0820151816004015560c0820151816005015560e0820151816006015561010082015181600701556101208201518160080155610140820151816009015561016082015181600a0155505060018080549050610e919190612818565b9050949350505050565b600047905090565b60008060018381548110610ee0577f4e487b7100000000000000000000000000000000000000000000000000000000600052603260045260246000fd5b90600052602060002090600b0201905060016003811115610f2a577f4e487b7100000000000000000000000000000000000000000000000000000000600052602160045260246000fd5b8160020160149054906101000a900460ff166003811115610f74577f4e487b7100000000000000000000000000000000000000000000000000000000600052602160045260246000fd5b14610fb4576040517f08c379a0000000000000000000000000000000000000000000000000000000008152600401610fab90612562565b60405180910390fd5b80600a0154816006015442610fc99190612818565b11610ff2574281600a01548260060154610fe391906127c2565b610fed9190612818565b610ff5565b60005b915050919050565b600060018381548110611039577f4e487b7100000000000000000000000000000000000000000000000000000000600052603260045260246000fd5b90600052602060002090600b02019050600380811115611082577f4e487b7100000000000000000000000000000000000000000000000000000000600052602160045260246000fd5b8160020160149054906101000a900460ff1660038111156110cc577f4e487b7100000000000000000000000000000000000000000000000000000000600052602160045260246000fd5b141561110d576040517f08c379a0000000000000000000000000000000000000000000000000000000008152600401611104906125a2565b60405180910390fd5b8060000160009054906101000a900473ffffffffffffffffffffffffffffffffffffffff1673ffffffffffffffffffffffffffffffffffffffff163373ffffffffffffffffffffffffffffffffffffffff1614806111ba57508060010160009054906101000a900473ffffffffffffffffffffffffffffffffffffffff1673ffffffffffffffffffffffffffffffffffffffff163373ffffffffffffffffffffffffffffffffffffffff16145b6111f9576040517f08c379a00000000000000000000000000000000000000000000000000000000081526004016111f090612502565b60405180910390fd5b3373ffffffffffffffffffffffffffffffffffffffff16838260020160009054906101000a900473ffffffffffffffffffffffffffffffffffffffff1673ffffffffffffffffffffffffffffffffffffffff167fdccf2f8b2cc26eafcd61905cba744cff4b81d14740725f6376390dc6298a6a3c8560405161127b9190612480565b60405180910390a4505050565b60008054906101000a900473ffffffffffffffffffffffffffffffffffffffff1681565b6000600182815481106112e8577f4e487b7100000000000000000000000000000000000000000000000000000000600052603260045260246000fd5b90600052602060002090600b0201905060006003811115611332577f4e487b7100000000000000000000000000000000000000000000000000000000600052602160045260246000fd5b8160020160149054906101000a900460ff16600381111561137c577f4e487b7100000000000000000000000000000000000000000000000000000000600052602160045260246000fd5b14806114095750600160038111156113bd577f4e487b7100000000000000000000000000000000000000000000000000000000600052602160045260246000fd5b8160020160149054906101000a900460ff166003811115611407577f4e487b7100000000000000000000000000000000000000000000000000000000600052602160045260246000fd5b145b611448576040517f08c379a000000000000000000000000000000000000000000000000000000000815260040161143f90612542565b60405180910390fd5b8060000160009054906101000a900473ffffffffffffffffffffffffffffffffffffffff1673ffffffffffffffffffffffffffffffffffffffff163373ffffffffffffffffffffffffffffffffffffffff16146114da576040517f08c379a00000000000000000000000000000000000000000000000000000000081526004016114d1906124a2565b60405180910390fd5b60016003811115611514577f4e487b7100000000000000000000000000000000000000000000000000000000600052602160045260246000fd5b8160020160149054906101000a900460ff16600381111561155e577f4e487b7100000000000000000000000000000000000000000000000000000000600052602160045260246000fd5b141561168f5780600a01548160060154426115799190612818565b116115b9576040517f08c379a00000000000000000000000000000000000000000000000000000000081526004016115b090612602565b60405180910390fd5b8060000160009054906101000a900473ffffffffffffffffffffffffffffffffffffffff1673ffffffffffffffffffffffffffffffffffffffff166108fc8260070154836003015461160b91906127c2565b9081150290604051600060405180830381858888f19350505050158015611636573d6000803e3d6000fd5b5060038160020160146101000a81548160ff02191690836003811115611685577f4e487b7100000000000000000000000000000000000000000000000000000000600052602160045260246000fd5b0217905550611838565b80600901548160050154426116a49190612818565b11156116e5576040517f08c379a00000000000000000000000000000000000000000000000000000000081526004016116dc906125c2565b60405180910390fd5b8060020160009054906101000a900473ffffffffffffffffffffffffffffffffffffffff1673ffffffffffffffffffffffffffffffffffffffff1663f7434ea96040518163ffffffff1660e01b815260040161174090612642565b60206040518083038186803b15801561175857600080fd5b505afa15801561176c573d6000803e3d6000fd5b505050506040513d601f19601f820116820180604052508101906117909190611c9b565b3410156117d2576040517f08c379a00000000000000000000000000000000000000000000000000000000081526004016117c990612522565b60405180910390fd5b34816007018190555042816006018190555060018160020160146101000a81548160ff02191690836003811115611832577f4e487b7100000000000000000000000000000000000000000000000000000000600052602160045260246000fd5b02179055505b5050565b600060018281548110611878577f4e487b7100000000000000000000000000000000000000000000000000000000600052603260045260246000fd5b90600052602060002090600b02019050600160038111156118c2577f4e487b7100000000000000000000000000000000000000000000000000000000600052602160045260246000fd5b8160020160149054906101000a900460ff16600381111561190c577f4e487b7100000000000000000000000000000000000000000000000000000000600052602160045260246000fd5b1461194c576040517f08c379a000000000000000000000000000000000000000000000000000000000815260040161194390612682565b60405180910390fd5b80600a01548160060154426119619190612818565b11156119a2576040517f08c379a0000000000000000000000000000000000000000000000000000000008152600401611999906126a2565b60405180910390fd5b3481600801819055508060020160009054906101000a900473ffffffffffffffffffffffffffffffffffffffff1673ffffffffffffffffffffffffffffffffffffffff1663c13517e13460026040518363ffffffff1660e01b8152600401611a0a91906126dd565b6020604051808303818588803b158015611a2357600080fd5b505af1158015611a37573d6000803e3d6000fd5b50505050506040513d601f19601f82011682018060405250810190611a5c9190611c9b565b816004018190555060028160020160146101000a81548160ff02191690836003811115611ab2577f4e487b7100000000000000000000000000000000000000000000000000000000600052602160045260246000fd5b02179055508160026000836004015481526020019081526020016000208190555080600401548160020160009054906101000a900473ffffffffffffffffffffffffffffffffffffffff1673ffffffffffffffffffffffffffffffffffffffff167f74baab670a4015ab2f1b467c5252a96141a2573f2908e58a92081e80d3cfde3d8485604051611b4492919061270b565b60405180910390a35050565b6000611b63611b5e84612765565b612734565b905082815260208101848484011115611b7b57600080fd5b611b868482856128d1565b509392505050565b600081359050611b9d816129c5565b92915050565b600082601f830112611bb457600080fd5b8135611bc4848260208601611b50565b91505092915050565b600081359050611bdc816129dc565b92915050565b600081519050611bf1816129dc565b92915050565b60008060008060808587031215611c0d57600080fd5b6000611c1b87828801611b8e565b945050602085013567ffffffffffffffff811115611c3857600080fd5b611c4487828801611ba3565b9350506040611c5587828801611bcd565b9250506060611c6687828801611bcd565b91505092959194509250565b600060208284031215611c8457600080fd5b6000611c9284828501611bcd565b91505092915050565b600060208284031215611cad57600080fd5b6000611cbb84828501611be2565b91505092915050565b60008060408385031215611cd757600080fd5b6000611ce585828601611bcd565b925050602083013567ffffffffffffffff811115611d0257600080fd5b611d0e85828601611ba3565b9150509250929050565b60008060408385031215611d2b57600080fd5b6000611d3985828601611bcd565b9250506020611d4a85828601611bcd565b9150509250929050565b611d5d8161284c565b82525050565b611d6c8161289b565b82525050565b611d7b816128bf565b82525050565b6000611d8c82612795565b611d9681856127b1565b9350611da68185602086016128e0565b611daf816129a0565b840191505092915050565b6000611dc7601c836127b1565b91507f4f6e6c792070617965722063616e207265636c61696d2066756e6473000000006000830152602082019050919050565b6000611e076023836127b1565b91507f5472616e73616374696f6e206973206e6f7420696e20696e697469616c20737460008301527f61746500000000000000000000000000000000000000000000000000000000006020830152604082019050919050565b6000611e6d601f836127b1565b91507f5061796572207374696c6c206861732074696d6520746f207265636c61696d006000830152602082019050919050565b6000611ead6030836127b1565b91507f5468697264207061727469657320617265206e6f7420616c6c6f77656420746f60008301527f207375626d69742065766964656e6365000000000000000000000000000000006020830152604082019050919050565b6000611f13603a836127b1565b91507f43616e2774207265636c61696d2066756e647320776974686f7574206465706f60008301527f736974696e6720746865206172626974726174696f6e206665650000000000006020830152604082019050919050565b6000611f796033836127b1565b91507f5472616e73616374696f6e206973206e6f7420696e20616e20696e697469616c60008301527f206f72207265636c61696d6564207374617465000000000000000000000000006020830152604082019050919050565b6000611fdf6025836127b1565b91507f5472616e73616374696f6e206973206e6f7420696e205265636c61696d65642060008301527f73746174650000000000000000000000000000000000000000000000000000006020830152604082019050919050565b60006120456028836127b1565b91507f4f6e6c79207468652061726269747261746f722063616e20657865637574652060008301527f612072756c696e670000000000000000000000000000000000000000000000006020830152604082019050919050565b60006120ab6021836127b1565b91507f5472616e73616374696f6e206e6f7420696e207265736f6c766564207374617460008301527f65000000000000000000000000000000000000000000000000000000000000006020830152604082019050919050565b60006121116018836127b1565b91507f5265636c616d6174696f6e20706572696f6420656e64656400000000000000006000830152602082019050919050565b60006121516014836127b1565b91507f52756c696e67206f7574206f6620626f756e64730000000000000000000000006000830152602082019050919050565b6000612191602f836127b1565b91507f5061796565207374696c6c206861732074696d6520746f206465706f7369742060008301527f6172626974726174696f6e2066656500000000000000000000000000000000006020830152604082019050919050565b60006121f76023836127b1565b91507f5472616e73616374696f6e206973206e6f7420696e20496e697469616c20737460008301527f61746500000000000000000000000000000000000000000000000000000000006020830152604082019050919050565b600061225d6000836127a0565b9150600082019050919050565b6000612277602d836127b1565b91507f54686572652073686f756c642062652061206469737075746520746f2065786560008301527f6375746520612072756c696e67000000000000000000000000000000000000006020830152604082019050919050565b60006122dd6025836127b1565b91507f5472616e73616374696f6e206973206e6f7420696e207265636c61696d65642060008301527f73746174650000000000000000000000000000000000000000000000000000006020830152604082019050919050565b60006123436026836127b1565b91507f4172626974726174696f6e20666565206465706f73697420706572696f64206560008301527f6c617073656400000000000000000000000000000000000000000000000000006020830152604082019050919050565b6123a581612891565b82525050565b6000610180820190506123c1600083018f611d54565b6123ce602083018e611d54565b6123db604083018d611d63565b6123e8606083018c611d72565b6123f5608083018b61239c565b61240260a083018a61239c565b61240f60c083018961239c565b61241c60e083018861239c565b61242a61010083018761239c565b61243861012083018661239c565b61244661014083018561239c565b61245461016083018461239c565b9d9c50505050505050505050505050565b600060208201905061247a6000830184611d63565b92915050565b6000602082019050818103600083015261249a8184611d81565b905092915050565b600060208201905081810360008301526124bb81611dba565b9050919050565b600060208201905081810360008301526124db81611dfa565b9050919050565b600060208201905081810360008301526124fb81611e60565b9050919050565b6000602082019050818103600083015261251b81611ea0565b9050919050565b6000602082019050818103600083015261253b81611f06565b9050919050565b6000602082019050818103600083015261255b81611f6c565b9050919050565b6000602082019050818103600083015261257b81611fd2565b9050919050565b6000602082019050818103600083015261259b81612038565b9050919050565b600060208201905081810360008301526125bb8161209e565b9050919050565b600060208201905081810360008301526125db81612104565b9050919050565b600060208201905081810360008301526125fb81612144565b9050919050565b6000602082019050818103600083015261261b81612184565b9050919050565b6000602082019050818103600083015261263b816121ea565b9050919050565b6000602082019050818103600083015261265b81612250565b9050919050565b6000602082019050818103600083015261267b8161226a565b9050919050565b6000602082019050818103600083015261269b816122d0565b9050919050565b600060208201905081810360008301526126bb81612336565b9050919050565b60006020820190506126d7600083018461239c565b92915050565b60006040820190506126f2600083018461239c565b818103602083015261270381612250565b905092915050565b6000604082019050612720600083018561239c565b61272d602083018461239c565b9392505050565b6000604051905081810181811067ffffffffffffffff8211171561275b5761275a612971565b5b8060405250919050565b600067ffffffffffffffff8211156127805761277f612971565b5b601f19601f8301169050602081019050919050565b600081519050919050565b600082825260208201905092915050565b600082825260208201905092915050565b60006127cd82612891565b91506127d883612891565b9250827fffffffffffffffffffffffffffffffffffffffffffffffffffffffffffffffff0382111561280d5761280c612913565b5b828201905092915050565b600061282382612891565b915061282e83612891565b92508282101561284157612840612913565b5b828203905092915050565b600061285782612871565b9050919050565b600081905061286c826129b1565b919050565b600073ffffffffffffffffffffffffffffffffffffffff82169050919050565b6000819050919050565b60006128a6826128ad565b9050919050565b60006128b882612871565b9050919050565b60006128ca8261285e565b9050919050565b82818337600083830152505050565b60005b838110156128fe5780820151818401526020810190506128e3565b8381111561290d576000848401525b50505050565b7f4e487b7100000000000000000000000000000000000000000000000000000000600052601160045260246000fd5b7f4e487b7100000000000000000000000000000000000000000000000000000000600052602160045260246000fd5b7f4e487b7100000000000000000000000000000000000000000000000000000000600052604160045260246000fd5b6000601f19601f8301169050919050565b600481106129c2576129c1612942565b5b50565b6129ce8161284c565b81146129d957600080fd5b50565b6129e581612891565b81146129f057600080fd5b5056fea2646970667358221220b3b592a41d4b5a03cdcb149c06f0fe5a86725f6adcac9785f16280454dd3f4d064736f6c63430008000033",
  "immutableReferences": {},
  "source": "// SPDX-License-Identifier: GPL-3.0\npragma solidity ^0.8.0;\n\nimport \"./Escrow.sol\";\n\n// contract is for all things dispute related\ncontract EscrowDisputeManager is Escrow {\n    function reclaimFunds(uint256 _contractID) public payable {\n    Contract storage transaction = contracts[_contractID];\n\n    require(\n      transaction.status == Status.Initial || transaction.status == Status.Reclaimed,\n      \"Transaction is not in an initial or reclaimed state\"\n    );\n\n    require(msg.sender == transaction.payer, \"Only payer can reclaim funds\");\n\n    // if payer has already called function, putting status in a reclaimed state AND the payee hasn't deposited the\n    // arbitration fee, then the payer can reclaim the funds in escrow\n    if (transaction.status == Status.Reclaimed) {\n      require(\n        block.timestamp - transaction.reclaimedAt > transaction.arbitrationFeeDepositPeriod,\n        \"Payee still has time to deposit arbitration fee\"\n      );\n      // payer wins by default and gets refunded escrowBalance + arbitrationFee\n      transaction.payer.transfer(transaction.value + transaction.payerFeeDeposit);\n      transaction.status = Status.Resolved;\n    } else {\n      // otherwise, payer is calling reclaim for the first time, and must check to see if contract is still in period\n      require(block.timestamp - transaction.createdAt <= transaction.reclamationPeriod, \"Reclamation period ended\");\n      // require the payer to pay arbitration fee\n      require(\n        msg.value >= transaction.arbitrator.arbitrationCost(\"\"),\n        \"Can't reclaim funds without depositing the arbitration fee\"\n      );\n      transaction.payerFeeDeposit = msg.value;\n      transaction.reclaimedAt = block.timestamp; // start the reclamation phase\n      transaction.status = Status.Reclaimed; // set contract status to reclaimed state\n    }\n  }\n\n  function depositArbitrationFeeForPayee(uint256 _contractID) public payable {\n    Contract storage transaction = contracts[_contractID];\n    // check that state of contract is reclaimed\n    require(transaction.status == Status.Reclaimed, \"Transaction is not in reclaimed state\");\n    // doesn't there need to be a check for if the arbitrationFeeDepositPeriod has ended?\n    require(block.timestamp - transaction.reclaimedAt <= transaction.arbitrationFeeDepositPeriod, \"Arbitration fee deposit period elapsed\");\n\n    // if checks pass, deposit payee arbitration fee into ARBITRATOR contract balance, and open a dispute\n    transaction.payeeFeeDeposit = msg.value;\n    transaction.disputeID = transaction.arbitrator.createDispute{value: msg.value}(numberOfRulingOptions, \"\");\n    transaction.status = Status.Disputed;\n    disputeIDtoContractID[transaction.disputeID] = _contractID;\n\n    // emit dispute event\n    emit Dispute(transaction.arbitrator, transaction.disputeID, _contractID, _contractID);\n  }\n\n  function remainingTimeToReclaim(uint256 _contractID) public view returns (uint256) {\n    Contract storage transaction = contracts[_contractID];\n    require(transaction.status == Status.Initial, \"Transaction is not in Initial state\");\n    return (block.timestamp - transaction.createdAt) > transaction.reclamationPeriod ? 0 : (transaction.createdAt + transaction.reclamationPeriod - block.timestamp);\n  }\n\n  function remainingTimeToDepositArbitrationFee(uint256 _contractID) public view returns (uint256) {\n    Contract storage transaction = contracts[_contractID];\n    require(transaction.status == Status.Reclaimed, \"Transaction is not in Reclaimed state\");\n    return (block.timestamp - transaction.reclaimedAt) > transaction.arbitrationFeeDepositPeriod ? 0 : (transaction.reclaimedAt + transaction.arbitrationFeeDepositPeriod - block.timestamp);\n  }\n}",
  "sourcePath": "/home/victor/kairos/backend/contracts/EscrowDisputeManager.sol",
  "compiler": {
    "name": "solc",
    "version": "0.8.0+commit.c7dfd78e.Emscripten.clang"
  },
  "schemaVersion": "3.3.4",
  "updatedAt": "2021-07-05T15:18:05.523Z",
  "devdoc": {
    "kind": "dev",
    "methods": {
      "rule(uint256,uint256)": {
        "details": "Give a ruling for a dispute. Must be called by the arbitrator. The purpose of this function is to ensure that the address calling it has the right to rule on the contract.",
        "params": {
          "_disputeID": "ID of the dispute in the Arbitrator contract.",
          "_ruling": "Ruling given by the arbitrator. Note that 0 is reserved for \"Not able/wanting to make a decision\"."
        }
      }
    },
    "version": 1
  },
  "userdoc": {
    "kind": "user",
    "methods": {},
    "version": 1
  }
}