{
  "contractName": "EscrowDisputeManager",
  "abi": [
    {
      "anonymous": false,
      "inputs": [
        {
          "indexed": true,
          "internalType": "contract IArbitrator",
          "name": "_arbitrator",
          "type": "address"
        },
        {
          "indexed": true,
          "internalType": "uint256",
          "name": "_disputeID",
          "type": "uint256"
        },
        {
          "indexed": false,
          "internalType": "uint256",
          "name": "_metaEvidenceID",
          "type": "uint256"
        },
        {
          "indexed": false,
          "internalType": "uint256",
          "name": "_evidenceGroupID",
          "type": "uint256"
        }
      ],
      "name": "Dispute",
      "type": "event"
    },
    {
      "anonymous": false,
      "inputs": [
        {
          "indexed": true,
          "internalType": "contract IArbitrator",
          "name": "_arbitrator",
          "type": "address"
        },
        {
          "indexed": true,
          "internalType": "uint256",
          "name": "_evidenceGroupID",
          "type": "uint256"
        },
        {
          "indexed": true,
          "internalType": "address",
          "name": "_party",
          "type": "address"
        },
        {
          "indexed": false,
          "internalType": "string",
          "name": "_evidence",
          "type": "string"
        }
      ],
      "name": "Evidence",
      "type": "event"
    },
    {
      "anonymous": false,
      "inputs": [
        {
          "indexed": true,
          "internalType": "uint256",
          "name": "_metaEvidenceID",
          "type": "uint256"
        },
        {
          "indexed": false,
          "internalType": "string",
          "name": "_evidence",
          "type": "string"
        }
      ],
      "name": "MetaEvidence",
      "type": "event"
    },
    {
      "anonymous": false,
      "inputs": [
        {
          "indexed": true,
          "internalType": "contract IArbitrator",
          "name": "_arbitrator",
          "type": "address"
        },
        {
          "indexed": true,
          "internalType": "uint256",
          "name": "_disputeID",
          "type": "uint256"
        },
        {
          "indexed": false,
          "internalType": "uint256",
          "name": "_ruling",
          "type": "uint256"
        }
      ],
      "name": "Ruling",
      "type": "event"
    },
    {
      "inputs": [
        {
          "internalType": "uint256",
          "name": "",
          "type": "uint256"
        }
      ],
      "name": "contracts",
      "outputs": [
        {
          "internalType": "address payable",
          "name": "payer",
          "type": "address"
        },
        {
          "internalType": "address payable",
          "name": "payee",
          "type": "address"
        },
        {
          "internalType": "contract IArbitrator",
          "name": "arbitrator",
          "type": "address"
        },
        {
          "internalType": "enum Escrow.Status",
          "name": "status",
          "type": "uint8"
        },
        {
          "internalType": "uint256",
          "name": "value",
          "type": "uint256"
        },
        {
          "internalType": "uint256",
          "name": "disputeID",
          "type": "uint256"
        },
        {
          "internalType": "uint256",
          "name": "createdAt",
          "type": "uint256"
        },
        {
          "internalType": "uint256",
          "name": "reclaimedAt",
          "type": "uint256"
        },
        {
          "internalType": "uint256",
          "name": "payerFeeDeposit",
          "type": "uint256"
        },
        {
          "internalType": "uint256",
          "name": "payeeFeeDeposit",
          "type": "uint256"
        },
        {
          "internalType": "uint256",
          "name": "reclamationPeriod",
          "type": "uint256"
        },
        {
          "internalType": "uint256",
          "name": "arbitrationFeeDepositPeriod",
          "type": "uint256"
        }
      ],
      "stateMutability": "view",
      "type": "function"
    },
    {
      "inputs": [
        {
          "internalType": "address payable",
          "name": "_payee",
          "type": "address"
        },
        {
          "internalType": "string",
          "name": "_metaEvidence",
          "type": "string"
        },
        {
          "internalType": "uint256",
          "name": "_reclamationPeriod",
          "type": "uint256"
        },
        {
          "internalType": "uint256",
          "name": "_arbitrationFeeDepositPeriod",
          "type": "uint256"
        }
      ],
      "name": "createNewContract",
      "outputs": [
        {
          "internalType": "uint256",
          "name": "contractID",
          "type": "uint256"
        }
      ],
      "stateMutability": "payable",
      "type": "function"
    },
    {
      "inputs": [
        {
          "internalType": "uint256",
          "name": "_contractID",
          "type": "uint256"
        }
      ],
      "name": "releaseFunds",
      "outputs": [],
      "stateMutability": "nonpayable",
      "type": "function"
    },
    {
      "inputs": [
        {
          "internalType": "uint256",
          "name": "_disputeID",
          "type": "uint256"
        },
        {
          "internalType": "uint256",
          "name": "_ruling",
          "type": "uint256"
        }
      ],
      "name": "rule",
      "outputs": [],
      "stateMutability": "nonpayable",
      "type": "function"
    },
    {
      "inputs": [
        {
          "internalType": "uint256",
          "name": "_contractID",
          "type": "uint256"
        },
        {
          "internalType": "string",
          "name": "_evidence",
          "type": "string"
        }
      ],
      "name": "submitEvidence",
      "outputs": [],
      "stateMutability": "nonpayable",
      "type": "function"
    },
    {
      "inputs": [
        {
          "internalType": "uint256",
          "name": "_contractID",
          "type": "uint256"
        }
      ],
      "name": "reclaimFunds",
      "outputs": [],
      "stateMutability": "payable",
      "type": "function"
    },
    {
      "inputs": [
        {
          "internalType": "uint256",
          "name": "_contractID",
          "type": "uint256"
        }
      ],
      "name": "depositArbitrationFeeForPayee",
      "outputs": [],
      "stateMutability": "payable",
      "type": "function"
    },
    {
      "inputs": [
        {
          "internalType": "uint256",
          "name": "_contractID",
          "type": "uint256"
        }
      ],
      "name": "remainingTimeToReclaim",
      "outputs": [
        {
          "internalType": "uint256",
          "name": "",
          "type": "uint256"
        }
      ],
      "stateMutability": "view",
      "type": "function"
    },
    {
      "inputs": [
        {
          "internalType": "uint256",
          "name": "_contractID",
          "type": "uint256"
        }
      ],
      "name": "remainingTimeToDepositArbitrationFee",
      "outputs": [
        {
          "internalType": "uint256",
          "name": "",
          "type": "uint256"
        }
      ],
      "stateMutability": "view",
      "type": "function"
    }
  ],
  "bytecode": "0x60806040527360b2abfdfad9c0873242f59f2a8c32a3cc682f806000806101000a81548173ffffffffffffffffffffffffffffffffffffffff021916908373ffffffffffffffffffffffffffffffffffffffff16021790555034801561006457600080fd5b50612976806100746000396000f3fe6080604052600436106100865760003560e01c80634e97202e116100595780634e97202e146101625780639db5d71814610192578063a6a7f0eb146101cf578063f9f161a8146101f8578063fa1aa68e1461021457610086565b8063311a6c561461008b578063360cee77146100b4578063474da79a146100f15780634d68282f14610139575b600080fd5b34801561009757600080fd5b506100b260048036038101906100ad9190611c80565b610230565b005b3480156100c057600080fd5b506100db60048036038101906100d69190611bda565b61067e565b6040516100e8919061260f565b60405180910390f35b3480156100fd57600080fd5b5061011860048036038101906101139190611bda565b6107d8565b6040516101309c9b9a99989796959493929190612313565b60405180910390f35b34801561014557600080fd5b50610160600480360381019061015b9190611bda565b6108b5565b005b61017c60048036038101906101779190611b5f565b610b38565b604051610189919061260f565b60405180910390f35b34801561019e57600080fd5b506101b960048036038101906101b49190611bda565b610e2f565b6040516101c6919061260f565b60405180910390f35b3480156101db57600080fd5b506101f660048036038101906101f19190611c2c565b610f89565b005b610212600480360381019061020d9190611bda565b611214565b005b61022e60048036038101906102299190611bda565b6117a4565b005b600060026000848152602001908152602001600020549050600060018281548110610284577f4e487b7100000000000000000000000000000000000000000000000000000000600052603260045260246000fd5b90600052602060002090600b020190508060020160009054906101000a900473ffffffffffffffffffffffffffffffffffffffff1673ffffffffffffffffffffffffffffffffffffffff163373ffffffffffffffffffffffffffffffffffffffff1614610326576040517f08c379a000000000000000000000000000000000000000000000000000000000815260040161031d906124cf565b60405180910390fd5b60026003811115610360577f4e487b7100000000000000000000000000000000000000000000000000000000600052602160045260246000fd5b8160020160149054906101000a900460ff1660038111156103aa577f4e487b7100000000000000000000000000000000000000000000000000000000600052602160045260246000fd5b146103ea576040517f08c379a00000000000000000000000000000000000000000000000000000000081526004016103e1906125af565b60405180910390fd5b600283111561042e576040517f08c379a00000000000000000000000000000000000000000000000000000000081526004016104259061252f565b60405180910390fd5b60038160020160146101000a81548160ff0219169083600381111561047c577f4e487b7100000000000000000000000000000000000000000000000000000000600052602160045260246000fd5b0217905550600160028111156104bb577f4e487b7100000000000000000000000000000000000000000000000000000000600052602160045260246000fd5b831415610545578060000160009054906101000a900473ffffffffffffffffffffffffffffffffffffffff1673ffffffffffffffffffffffffffffffffffffffff166108fc82600701548360030154610514919061270f565b9081150290604051600060405180830381858888f1935050505015801561053f573d6000803e3d6000fd5b50610605565b60028081111561057e577f4e487b7100000000000000000000000000000000000000000000000000000000600052602160045260246000fd5b831415610604578060010160009054906101000a900473ffffffffffffffffffffffffffffffffffffffff1673ffffffffffffffffffffffffffffffffffffffff166108fc826008015483600301546105d7919061270f565b9081150290604051600060405180830381858888f19350505050158015610602573d6000803e3d6000fd5b505b5b838160020160009054906101000a900473ffffffffffffffffffffffffffffffffffffffff1673ffffffffffffffffffffffffffffffffffffffff167f394027a5fa6e098a1191094d1719d6929b9abc535fcc0c8f448d6a4e7562227685604051610670919061260f565b60405180910390a350505050565b600080600183815481106106bb577f4e487b7100000000000000000000000000000000000000000000000000000000600052603260045260246000fd5b90600052602060002090600b0201905060006003811115610705577f4e487b7100000000000000000000000000000000000000000000000000000000600052602160045260246000fd5b8160020160149054906101000a900460ff16600381111561074f577f4e487b7100000000000000000000000000000000000000000000000000000000600052602160045260246000fd5b1461078f576040517f08c379a00000000000000000000000000000000000000000000000000000000081526004016107869061256f565b60405180910390fd5b80600901548160050154426107a49190612765565b116107cd5742816009015482600501546107be919061270f565b6107c89190612765565b6107d0565b60005b915050919050565b600181815481106107e857600080fd5b90600052602060002090600b02016000915090508060000160009054906101000a900473ffffffffffffffffffffffffffffffffffffffff16908060010160009054906101000a900473ffffffffffffffffffffffffffffffffffffffff16908060020160009054906101000a900473ffffffffffffffffffffffffffffffffffffffff16908060020160149054906101000a900460ff169080600301549080600401549080600501549080600601549080600701549080600801549080600901549080600a015490508c565b6000600182815481106108f1577f4e487b7100000000000000000000000000000000000000000000000000000000600052603260045260246000fd5b90600052602060002090600b020190506000600381111561093b577f4e487b7100000000000000000000000000000000000000000000000000000000600052602160045260246000fd5b8160020160149054906101000a900460ff166003811115610985577f4e487b7100000000000000000000000000000000000000000000000000000000600052602160045260246000fd5b146109c5576040517f08c379a00000000000000000000000000000000000000000000000000000000081526004016109bc9061240f565b60405180910390fd5b8060000160009054906101000a900473ffffffffffffffffffffffffffffffffffffffff1673ffffffffffffffffffffffffffffffffffffffff163373ffffffffffffffffffffffffffffffffffffffff1614610a72578060090154816005015442610a319190612765565b11610a71576040517f08c379a0000000000000000000000000000000000000000000000000000000008152600401610a689061242f565b60405180910390fd5b5b60038160020160146101000a81548160ff02191690836003811115610ac0577f4e487b7100000000000000000000000000000000000000000000000000000000600052602160045260246000fd5b02179055508060010160009054906101000a900473ffffffffffffffffffffffffffffffffffffffff1673ffffffffffffffffffffffffffffffffffffffff166108fc82600301549081150290604051600060405180830381858888f19350505050158015610b33573d6000803e3d6000fd5b505050565b60006001805490507f61606860eb6c87306811e2695215385101daab53bd6ab4e9f9049aead9363c7d85604051610b6f91906123cd565b60405180910390a260016040518061018001604052803373ffffffffffffffffffffffffffffffffffffffff1681526020018773ffffffffffffffffffffffffffffffffffffffff16815260200160008054906101000a900473ffffffffffffffffffffffffffffffffffffffff1673ffffffffffffffffffffffffffffffffffffffff16815260200160006003811115610c33577f4e487b7100000000000000000000000000000000000000000000000000000000600052602160045260246000fd5b8152602001348152602001600081526020014281526020016000815260200160008152602001600081526020018581526020018481525090806001815401808255809150506001900390600052602060002090600b020160009091909190915060008201518160000160006101000a81548173ffffffffffffffffffffffffffffffffffffffff021916908373ffffffffffffffffffffffffffffffffffffffff16021790555060208201518160010160006101000a81548173ffffffffffffffffffffffffffffffffffffffff021916908373ffffffffffffffffffffffffffffffffffffffff16021790555060408201518160020160006101000a81548173ffffffffffffffffffffffffffffffffffffffff021916908373ffffffffffffffffffffffffffffffffffffffff16021790555060608201518160020160146101000a81548160ff02191690836003811115610db9577f4e487b7100000000000000000000000000000000000000000000000000000000600052602160045260246000fd5b02179055506080820151816003015560a0820151816004015560c0820151816005015560e0820151816006015561010082015181600701556101208201518160080155610140820151816009015561016082015181600a0155505060018080549050610e259190612765565b9050949350505050565b60008060018381548110610e6c577f4e487b7100000000000000000000000000000000000000000000000000000000600052603260045260246000fd5b90600052602060002090600b0201905060016003811115610eb6577f4e487b7100000000000000000000000000000000000000000000000000000000600052602160045260246000fd5b8160020160149054906101000a900460ff166003811115610f00577f4e487b7100000000000000000000000000000000000000000000000000000000600052602160045260246000fd5b14610f40576040517f08c379a0000000000000000000000000000000000000000000000000000000008152600401610f37906124af565b60405180910390fd5b80600a0154816006015442610f559190612765565b11610f7e574281600a01548260060154610f6f919061270f565b610f799190612765565b610f81565b60005b915050919050565b600060018381548110610fc5577f4e487b7100000000000000000000000000000000000000000000000000000000600052603260045260246000fd5b90600052602060002090600b0201905060038081111561100e577f4e487b7100000000000000000000000000000000000000000000000000000000600052602160045260246000fd5b8160020160149054906101000a900460ff166003811115611058577f4e487b7100000000000000000000000000000000000000000000000000000000600052602160045260246000fd5b1415611099576040517f08c379a0000000000000000000000000000000000000000000000000000000008152600401611090906124ef565b60405180910390fd5b8060000160009054906101000a900473ffffffffffffffffffffffffffffffffffffffff1673ffffffffffffffffffffffffffffffffffffffff163373ffffffffffffffffffffffffffffffffffffffff16148061114657508060010160009054906101000a900473ffffffffffffffffffffffffffffffffffffffff1673ffffffffffffffffffffffffffffffffffffffff163373ffffffffffffffffffffffffffffffffffffffff16145b611185576040517f08c379a000000000000000000000000000000000000000000000000000000000815260040161117c9061244f565b60405180910390fd5b3373ffffffffffffffffffffffffffffffffffffffff16838260020160009054906101000a900473ffffffffffffffffffffffffffffffffffffffff1673ffffffffffffffffffffffffffffffffffffffff167fdccf2f8b2cc26eafcd61905cba744cff4b81d14740725f6376390dc6298a6a3c8560405161120791906123cd565b60405180910390a4505050565b600060018281548110611250577f4e487b7100000000000000000000000000000000000000000000000000000000600052603260045260246000fd5b90600052602060002090600b020190506000600381111561129a577f4e487b7100000000000000000000000000000000000000000000000000000000600052602160045260246000fd5b8160020160149054906101000a900460ff1660038111156112e4577f4e487b7100000000000000000000000000000000000000000000000000000000600052602160045260246000fd5b1480611371575060016003811115611325577f4e487b7100000000000000000000000000000000000000000000000000000000600052602160045260246000fd5b8160020160149054906101000a900460ff16600381111561136f577f4e487b7100000000000000000000000000000000000000000000000000000000600052602160045260246000fd5b145b6113b0576040517f08c379a00000000000000000000000000000000000000000000000000000000081526004016113a79061248f565b60405180910390fd5b8060000160009054906101000a900473ffffffffffffffffffffffffffffffffffffffff1673ffffffffffffffffffffffffffffffffffffffff163373ffffffffffffffffffffffffffffffffffffffff1614611442576040517f08c379a0000000000000000000000000000000000000000000000000000000008152600401611439906123ef565b60405180910390fd5b6001600381111561147c577f4e487b7100000000000000000000000000000000000000000000000000000000600052602160045260246000fd5b8160020160149054906101000a900460ff1660038111156114c6577f4e487b7100000000000000000000000000000000000000000000000000000000600052602160045260246000fd5b14156115f75780600a01548160060154426114e19190612765565b11611521576040517f08c379a00000000000000000000000000000000000000000000000000000000081526004016115189061254f565b60405180910390fd5b8060000160009054906101000a900473ffffffffffffffffffffffffffffffffffffffff1673ffffffffffffffffffffffffffffffffffffffff166108fc82600701548360030154611573919061270f565b9081150290604051600060405180830381858888f1935050505015801561159e573d6000803e3d6000fd5b5060038160020160146101000a81548160ff021916908360038111156115ed577f4e487b7100000000000000000000000000000000000000000000000000000000600052602160045260246000fd5b02179055506117a0565b806009015481600501544261160c9190612765565b111561164d576040517f08c379a00000000000000000000000000000000000000000000000000000000081526004016116449061250f565b60405180910390fd5b8060020160009054906101000a900473ffffffffffffffffffffffffffffffffffffffff1673ffffffffffffffffffffffffffffffffffffffff1663f7434ea96040518163ffffffff1660e01b81526004016116a89061258f565b60206040518083038186803b1580156116c057600080fd5b505afa1580156116d4573d6000803e3d6000fd5b505050506040513d601f19601f820116820180604052508101906116f89190611c03565b34101561173a576040517f08c379a00000000000000000000000000000000000000000000000000000000081526004016117319061246f565b60405180910390fd5b34816007018190555042816006018190555060018160020160146101000a81548160ff0219169083600381111561179a577f4e487b7100000000000000000000000000000000000000000000000000000000600052602160045260246000fd5b02179055505b5050565b6000600182815481106117e0577f4e487b7100000000000000000000000000000000000000000000000000000000600052603260045260246000fd5b90600052602060002090600b020190506001600381111561182a577f4e487b7100000000000000000000000000000000000000000000000000000000600052602160045260246000fd5b8160020160149054906101000a900460ff166003811115611874577f4e487b7100000000000000000000000000000000000000000000000000000000600052602160045260246000fd5b146118b4576040517f08c379a00000000000000000000000000000000000000000000000000000000081526004016118ab906125cf565b60405180910390fd5b80600a01548160060154426118c99190612765565b111561190a576040517f08c379a0000000000000000000000000000000000000000000000000000000008152600401611901906125ef565b60405180910390fd5b3481600801819055508060020160009054906101000a900473ffffffffffffffffffffffffffffffffffffffff1673ffffffffffffffffffffffffffffffffffffffff1663c13517e13460026040518363ffffffff1660e01b8152600401611972919061262a565b6020604051808303818588803b15801561198b57600080fd5b505af115801561199f573d6000803e3d6000fd5b50505050506040513d601f19601f820116820180604052508101906119c49190611c03565b816004018190555060028160020160146101000a81548160ff02191690836003811115611a1a577f4e487b7100000000000000000000000000000000000000000000000000000000600052602160045260246000fd5b02179055508160026000836004015481526020019081526020016000208190555080600401548160020160009054906101000a900473ffffffffffffffffffffffffffffffffffffffff1673ffffffffffffffffffffffffffffffffffffffff167f74baab670a4015ab2f1b467c5252a96141a2573f2908e58a92081e80d3cfde3d8485604051611aac929190612658565b60405180910390a35050565b6000611acb611ac6846126b2565b612681565b905082815260208101848484011115611ae357600080fd5b611aee84828561281e565b509392505050565b600081359050611b0581612912565b92915050565b600082601f830112611b1c57600080fd5b8135611b2c848260208601611ab8565b91505092915050565b600081359050611b4481612929565b92915050565b600081519050611b5981612929565b92915050565b60008060008060808587031215611b7557600080fd5b6000611b8387828801611af6565b945050602085013567ffffffffffffffff811115611ba057600080fd5b611bac87828801611b0b565b9350506040611bbd87828801611b35565b9250506060611bce87828801611b35565b91505092959194509250565b600060208284031215611bec57600080fd5b6000611bfa84828501611b35565b91505092915050565b600060208284031215611c1557600080fd5b6000611c2384828501611b4a565b91505092915050565b60008060408385031215611c3f57600080fd5b6000611c4d85828601611b35565b925050602083013567ffffffffffffffff811115611c6a57600080fd5b611c7685828601611b0b565b9150509250929050565b60008060408385031215611c9357600080fd5b6000611ca185828601611b35565b9250506020611cb285828601611b35565b9150509250929050565b611cc581612799565b82525050565b611cd4816127e8565b82525050565b611ce38161280c565b82525050565b6000611cf4826126e2565b611cfe81856126fe565b9350611d0e81856020860161282d565b611d17816128ed565b840191505092915050565b6000611d2f601c836126fe565b91507f4f6e6c792070617965722063616e207265636c61696d2066756e6473000000006000830152602082019050919050565b6000611d6f6023836126fe565b91507f5472616e73616374696f6e206973206e6f7420696e20696e697469616c20737460008301527f61746500000000000000000000000000000000000000000000000000000000006020830152604082019050919050565b6000611dd5601f836126fe565b91507f5061796572207374696c6c206861732074696d6520746f207265636c61696d006000830152602082019050919050565b6000611e156030836126fe565b91507f5468697264207061727469657320617265206e6f7420616c6c6f77656420746f60008301527f207375626d69742065766964656e6365000000000000000000000000000000006020830152604082019050919050565b6000611e7b603a836126fe565b91507f43616e2774207265636c61696d2066756e647320776974686f7574206465706f60008301527f736974696e6720746865206172626974726174696f6e206665650000000000006020830152604082019050919050565b6000611ee16033836126fe565b91507f5472616e73616374696f6e206973206e6f7420696e20616e20696e697469616c60008301527f206f72207265636c61696d6564207374617465000000000000000000000000006020830152604082019050919050565b6000611f476025836126fe565b91507f5472616e73616374696f6e206973206e6f7420696e205265636c61696d65642060008301527f73746174650000000000000000000000000000000000000000000000000000006020830152604082019050919050565b6000611fad6028836126fe565b91507f4f6e6c79207468652061726269747261746f722063616e20657865637574652060008301527f612072756c696e670000000000000000000000000000000000000000000000006020830152604082019050919050565b60006120136021836126fe565b91507f5472616e73616374696f6e206e6f7420696e207265736f6c766564207374617460008301527f65000000000000000000000000000000000000000000000000000000000000006020830152604082019050919050565b60006120796018836126fe565b91507f5265636c616d6174696f6e20706572696f6420656e64656400000000000000006000830152602082019050919050565b60006120b96014836126fe565b91507f52756c696e67206f7574206f6620626f756e64730000000000000000000000006000830152602082019050919050565b60006120f9602f836126fe565b91507f5061796565207374696c6c206861732074696d6520746f206465706f7369742060008301527f6172626974726174696f6e2066656500000000000000000000000000000000006020830152604082019050919050565b600061215f6023836126fe565b91507f5472616e73616374696f6e206973206e6f7420696e20496e697469616c20737460008301527f61746500000000000000000000000000000000000000000000000000000000006020830152604082019050919050565b60006121c56000836126ed565b9150600082019050919050565b60006121df602d836126fe565b91507f54686572652073686f756c642062652061206469737075746520746f2065786560008301527f6375746520612072756c696e67000000000000000000000000000000000000006020830152604082019050919050565b60006122456025836126fe565b91507f5472616e73616374696f6e206973206e6f7420696e207265636c61696d65642060008301527f73746174650000000000000000000000000000000000000000000000000000006020830152604082019050919050565b60006122ab6026836126fe565b91507f4172626974726174696f6e20666565206465706f73697420706572696f64206560008301527f6c617073656400000000000000000000000000000000000000000000000000006020830152604082019050919050565b61230d816127de565b82525050565b600061018082019050612329600083018f611cbc565b612336602083018e611cbc565b612343604083018d611ccb565b612350606083018c611cda565b61235d608083018b612304565b61236a60a083018a612304565b61237760c0830189612304565b61238460e0830188612304565b612392610100830187612304565b6123a0610120830186612304565b6123ae610140830185612304565b6123bc610160830184612304565b9d9c50505050505050505050505050565b600060208201905081810360008301526123e78184611ce9565b905092915050565b6000602082019050818103600083015261240881611d22565b9050919050565b6000602082019050818103600083015261242881611d62565b9050919050565b6000602082019050818103600083015261244881611dc8565b9050919050565b6000602082019050818103600083015261246881611e08565b9050919050565b6000602082019050818103600083015261248881611e6e565b9050919050565b600060208201905081810360008301526124a881611ed4565b9050919050565b600060208201905081810360008301526124c881611f3a565b9050919050565b600060208201905081810360008301526124e881611fa0565b9050919050565b6000602082019050818103600083015261250881612006565b9050919050565b600060208201905081810360008301526125288161206c565b9050919050565b60006020820190508181036000830152612548816120ac565b9050919050565b60006020820190508181036000830152612568816120ec565b9050919050565b6000602082019050818103600083015261258881612152565b9050919050565b600060208201905081810360008301526125a8816121b8565b9050919050565b600060208201905081810360008301526125c8816121d2565b9050919050565b600060208201905081810360008301526125e881612238565b9050919050565b600060208201905081810360008301526126088161229e565b9050919050565b60006020820190506126246000830184612304565b92915050565b600060408201905061263f6000830184612304565b8181036020830152612650816121b8565b905092915050565b600060408201905061266d6000830185612304565b61267a6020830184612304565b9392505050565b6000604051905081810181811067ffffffffffffffff821117156126a8576126a76128be565b5b8060405250919050565b600067ffffffffffffffff8211156126cd576126cc6128be565b5b601f19601f8301169050602081019050919050565b600081519050919050565b600082825260208201905092915050565b600082825260208201905092915050565b600061271a826127de565b9150612725836127de565b9250827fffffffffffffffffffffffffffffffffffffffffffffffffffffffffffffffff0382111561275a57612759612860565b5b828201905092915050565b6000612770826127de565b915061277b836127de565b92508282101561278e5761278d612860565b5b828203905092915050565b60006127a4826127be565b9050919050565b60008190506127b9826128fe565b919050565b600073ffffffffffffffffffffffffffffffffffffffff82169050919050565b6000819050919050565b60006127f3826127fa565b9050919050565b6000612805826127be565b9050919050565b6000612817826127ab565b9050919050565b82818337600083830152505050565b60005b8381101561284b578082015181840152602081019050612830565b8381111561285a576000848401525b50505050565b7f4e487b7100000000000000000000000000000000000000000000000000000000600052601160045260246000fd5b7f4e487b7100000000000000000000000000000000000000000000000000000000600052602160045260246000fd5b7f4e487b7100000000000000000000000000000000000000000000000000000000600052604160045260246000fd5b6000601f19601f8301169050919050565b6004811061290f5761290e61288f565b5b50565b61291b81612799565b811461292657600080fd5b50565b612932816127de565b811461293d57600080fd5b5056fea26469706673582212202d809c8e7df10f7377de369bc4e11c1514c4e7ae44dce65340633a37fb44927564736f6c63430008000033",
  "immutableReferences": {},
  "source": "// SPDX-License-Identifier: GPL-3.0\npragma solidity ^0.8.0;\n\nimport \"./Escrow.sol\";\n\n// contract is for all things dispute related\ncontract EscrowDisputeManager is Escrow {\n    function reclaimFunds(uint256 _contractID) public payable {\n    Contract storage transaction = contracts[_contractID];\n\n    require(\n      transaction.status == Status.Initial || transaction.status == Status.Reclaimed,\n      \"Transaction is not in an initial or reclaimed state\"\n    );\n\n    require(msg.sender == transaction.payer, \"Only payer can reclaim funds\");\n\n    // if payer has already called function, putting status in a reclaimed state AND the payee hasn't deposited the\n    // arbitration fee, then the payer can reclaim the funds in escrow\n    if (transaction.status == Status.Reclaimed) {\n      require(\n        block.timestamp - transaction.reclaimedAt > transaction.arbitrationFeeDepositPeriod,\n        \"Payee still has time to deposit arbitration fee\"\n      );\n      // payer wins by default and gets refunded escrowBalance + arbitrationFee\n      transaction.payer.transfer(transaction.value + transaction.payerFeeDeposit);\n      transaction.status = Status.Resolved;\n    } else {\n      // otherwise, payer is calling reclaim for the first time, and must check to see if contract is still in period\n      require(block.timestamp - transaction.createdAt <= transaction.reclamationPeriod, \"Reclamation period ended\");\n      // require the payer to pay arbitration fee\n      require(\n        msg.value >= transaction.arbitrator.arbitrationCost(\"\"),\n        \"Can't reclaim funds without depositing the arbitration fee\"\n      );\n      transaction.payerFeeDeposit = msg.value;\n      transaction.reclaimedAt = block.timestamp; // start the reclamation phase\n      transaction.status = Status.Reclaimed; // set contract status to reclaimed state\n    }\n  }\n\n  function depositArbitrationFeeForPayee(uint256 _contractID) public payable {\n    Contract storage transaction = contracts[_contractID];\n    // check that state of contract is reclaimed\n    require(transaction.status == Status.Reclaimed, \"Transaction is not in reclaimed state\");\n    // doesn't there need to be a check for if the arbitrationFeeDepositPeriod has ended?\n    require(block.timestamp - transaction.reclaimedAt <= transaction.arbitrationFeeDepositPeriod, \"Arbitration fee deposit period elapsed\");\n\n    // if checks pass, deposit payee arbitration fee into ARBITRATOR contract balance, and open a dispute\n    transaction.payeeFeeDeposit = msg.value;\n    transaction.disputeID = transaction.arbitrator.createDispute{value: msg.value}(numberOfRulingOptions, \"\");\n    transaction.status = Status.Disputed;\n    disputeIDtoContractID[transaction.disputeID] = _contractID;\n\n    // emit dispute event\n    emit Dispute(transaction.arbitrator, transaction.disputeID, _contractID, _contractID);\n  }\n\n  function remainingTimeToReclaim(uint256 _contractID) public view returns (uint256) {\n    Contract storage transaction = contracts[_contractID];\n    require(transaction.status == Status.Initial, \"Transaction is not in Initial state\");\n    return (block.timestamp - transaction.createdAt) > transaction.reclamationPeriod ? 0 : (transaction.createdAt + transaction.reclamationPeriod - block.timestamp);\n  }\n\n  function remainingTimeToDepositArbitrationFee(uint256 _contractID) public view returns (uint256) {\n    Contract storage transaction = contracts[_contractID];\n    require(transaction.status == Status.Reclaimed, \"Transaction is not in Reclaimed state\");\n    return (block.timestamp - transaction.reclaimedAt) > transaction.arbitrationFeeDepositPeriod ? 0 : (transaction.reclaimedAt + transaction.arbitrationFeeDepositPeriod - block.timestamp);\n  }\n}",
  "sourcePath": "/home/victor/kairos/backend/contracts/EscrowDisputeManager.sol",
  "compiler": {
    "name": "solc",
    "version": "0.8.0+commit.c7dfd78e.Emscripten.clang"
  },
  "schemaVersion": "3.3.4",
  "updatedAt": "2021-06-30T14:38:11.400Z",
  "devdoc": {
    "kind": "dev",
    "methods": {
      "rule(uint256,uint256)": {
        "details": "Give a ruling for a dispute. Must be called by the arbitrator. The purpose of this function is to ensure that the address calling it has the right to rule on the contract.",
        "params": {
          "_disputeID": "ID of the dispute in the Arbitrator contract.",
          "_ruling": "Ruling given by the arbitrator. Note that 0 is reserved for \"Not able/wanting to make a decision\"."
        }
      }
    },
    "version": 1
  },
  "userdoc": {
    "kind": "user",
    "methods": {},
    "version": 1
  }
}