{
  "contractName": "Escrow",
  "abi": [
    {
      "anonymous": false,
      "inputs": [
        {
          "indexed": true,
          "internalType": "contract IArbitrator",
          "name": "_arbitrator",
          "type": "address"
        },
        {
          "indexed": true,
          "internalType": "uint256",
          "name": "_disputeID",
          "type": "uint256"
        },
        {
          "indexed": false,
          "internalType": "uint256",
          "name": "_metaEvidenceID",
          "type": "uint256"
        },
        {
          "indexed": false,
          "internalType": "uint256",
          "name": "_evidenceGroupID",
          "type": "uint256"
        }
      ],
      "name": "Dispute",
      "type": "event"
    },
    {
      "anonymous": false,
      "inputs": [
        {
          "indexed": true,
          "internalType": "contract IArbitrator",
          "name": "_arbitrator",
          "type": "address"
        },
        {
          "indexed": true,
          "internalType": "uint256",
          "name": "_evidenceGroupID",
          "type": "uint256"
        },
        {
          "indexed": true,
          "internalType": "address",
          "name": "_party",
          "type": "address"
        },
        {
          "indexed": false,
          "internalType": "string",
          "name": "_evidence",
          "type": "string"
        }
      ],
      "name": "Evidence",
      "type": "event"
    },
    {
      "anonymous": false,
      "inputs": [
        {
          "indexed": true,
          "internalType": "uint256",
          "name": "_metaEvidenceID",
          "type": "uint256"
        },
        {
          "indexed": false,
          "internalType": "string",
          "name": "_evidence",
          "type": "string"
        }
      ],
      "name": "MetaEvidence",
      "type": "event"
    },
    {
      "anonymous": false,
      "inputs": [
        {
          "indexed": true,
          "internalType": "contract IArbitrator",
          "name": "_arbitrator",
          "type": "address"
        },
        {
          "indexed": true,
          "internalType": "uint256",
          "name": "_disputeID",
          "type": "uint256"
        },
        {
          "indexed": false,
          "internalType": "uint256",
          "name": "_ruling",
          "type": "uint256"
        }
      ],
      "name": "Ruling",
      "type": "event"
    },
    {
      "inputs": [
        {
          "internalType": "uint256",
          "name": "",
          "type": "uint256"
        }
      ],
      "name": "contracts",
      "outputs": [
        {
          "internalType": "address payable",
          "name": "payer",
          "type": "address"
        },
        {
          "internalType": "address payable",
          "name": "payee",
          "type": "address"
        },
        {
          "internalType": "contract IArbitrator",
          "name": "arbitrator",
          "type": "address"
        },
        {
          "internalType": "enum Escrow.Status",
          "name": "status",
          "type": "uint8"
        },
        {
          "internalType": "uint256",
          "name": "value",
          "type": "uint256"
        },
        {
          "internalType": "uint256",
          "name": "disputeID",
          "type": "uint256"
        },
        {
          "internalType": "uint256",
          "name": "createdAt",
          "type": "uint256"
        },
        {
          "internalType": "uint256",
          "name": "reclaimedAt",
          "type": "uint256"
        },
        {
          "internalType": "uint256",
          "name": "payerFeeDeposit",
          "type": "uint256"
        },
        {
          "internalType": "uint256",
          "name": "payeeFeeDeposit",
          "type": "uint256"
        },
        {
          "internalType": "uint256",
          "name": "reclamationPeriod",
          "type": "uint256"
        },
        {
          "internalType": "uint256",
          "name": "arbitrationFeeDepositPeriod",
          "type": "uint256"
        }
      ],
      "stateMutability": "view",
      "type": "function"
    },
    {
      "inputs": [
        {
          "internalType": "address payable",
          "name": "_payee",
          "type": "address"
        },
        {
          "internalType": "string",
          "name": "_metaEvidence",
          "type": "string"
        },
        {
          "internalType": "uint256",
          "name": "_reclamationPeriod",
          "type": "uint256"
        },
        {
          "internalType": "uint256",
          "name": "_arbitrationFeeDepositPeriod",
          "type": "uint256"
        }
      ],
      "name": "createNewContract",
      "outputs": [
        {
          "internalType": "uint256",
          "name": "contractID",
          "type": "uint256"
        }
      ],
      "stateMutability": "payable",
      "type": "function"
    },
    {
      "inputs": [
        {
          "internalType": "uint256",
          "name": "_contractID",
          "type": "uint256"
        }
      ],
      "name": "releaseFunds",
      "outputs": [],
      "stateMutability": "nonpayable",
      "type": "function"
    },
    {
      "inputs": [
        {
          "internalType": "uint256",
          "name": "_disputeID",
          "type": "uint256"
        },
        {
          "internalType": "uint256",
          "name": "_ruling",
          "type": "uint256"
        }
      ],
      "name": "rule",
      "outputs": [],
      "stateMutability": "nonpayable",
      "type": "function"
    },
    {
      "inputs": [
        {
          "internalType": "uint256",
          "name": "_contractID",
          "type": "uint256"
        },
        {
          "internalType": "string",
          "name": "_evidence",
          "type": "string"
        }
      ],
      "name": "submitEvidence",
      "outputs": [],
      "stateMutability": "nonpayable",
      "type": "function"
    }
  ],
  "bytecode": "0x60806040527360b2abfdfad9c0873242f59f2a8c32a3cc682f806000806101000a81548173ffffffffffffffffffffffffffffffffffffffff021916908373ffffffffffffffffffffffffffffffffffffffff16021790555034801561006457600080fd5b506117e6806100746000396000f3fe60806040526004361061004a5760003560e01c8063311a6c561461004f578063474da79a146100785780634d68282f146100c05780634e97202e146100e9578063a6a7f0eb14610119575b600080fd5b34801561005b57600080fd5b5061007660048036038101906100719190610ffc565b610142565b005b34801561008457600080fd5b5061009f600480360381019061009a9190610f7f565b610590565b6040516100b79c9b9a9998979695949392919061132b565b60405180910390f35b3480156100cc57600080fd5b506100e760048036038101906100e29190610f7f565b61066d565b005b61010360048036038101906100fe9190610f04565b6108f0565b60405161011091906114e7565b60405180910390f35b34801561012557600080fd5b50610140600480360381019061013b9190610fa8565b610be7565b005b600060026000848152602001908152602001600020549050600060018281548110610196577f4e487b7100000000000000000000000000000000000000000000000000000000600052603260045260246000fd5b90600052602060002090600b020190508060020160009054906101000a900473ffffffffffffffffffffffffffffffffffffffff1673ffffffffffffffffffffffffffffffffffffffff163373ffffffffffffffffffffffffffffffffffffffff1614610238576040517f08c379a000000000000000000000000000000000000000000000000000000000815260040161022f90611467565b60405180910390fd5b60026003811115610272577f4e487b7100000000000000000000000000000000000000000000000000000000600052602160045260246000fd5b8160020160149054906101000a900460ff1660038111156102bc577f4e487b7100000000000000000000000000000000000000000000000000000000600052602160045260246000fd5b146102fc576040517f08c379a00000000000000000000000000000000000000000000000000000000081526004016102f3906114c7565b60405180910390fd5b6002831115610340576040517f08c379a0000000000000000000000000000000000000000000000000000000008152600401610337906114a7565b60405180910390fd5b60038160020160146101000a81548160ff0219169083600381111561038e577f4e487b7100000000000000000000000000000000000000000000000000000000600052602160045260246000fd5b0217905550600160028111156103cd577f4e487b7100000000000000000000000000000000000000000000000000000000600052602160045260246000fd5b831415610457578060000160009054906101000a900473ffffffffffffffffffffffffffffffffffffffff1673ffffffffffffffffffffffffffffffffffffffff166108fc82600701548360030154610426919061157f565b9081150290604051600060405180830381858888f19350505050158015610451573d6000803e3d6000fd5b50610517565b600280811115610490577f4e487b7100000000000000000000000000000000000000000000000000000000600052602160045260246000fd5b831415610516578060010160009054906101000a900473ffffffffffffffffffffffffffffffffffffffff1673ffffffffffffffffffffffffffffffffffffffff166108fc826008015483600301546104e9919061157f565b9081150290604051600060405180830381858888f19350505050158015610514573d6000803e3d6000fd5b505b5b838160020160009054906101000a900473ffffffffffffffffffffffffffffffffffffffff1673ffffffffffffffffffffffffffffffffffffffff167f394027a5fa6e098a1191094d1719d6929b9abc535fcc0c8f448d6a4e756222768560405161058291906114e7565b60405180910390a350505050565b600181815481106105a057600080fd5b90600052602060002090600b02016000915090508060000160009054906101000a900473ffffffffffffffffffffffffffffffffffffffff16908060010160009054906101000a900473ffffffffffffffffffffffffffffffffffffffff16908060020160009054906101000a900473ffffffffffffffffffffffffffffffffffffffff16908060020160149054906101000a900460ff169080600301549080600401549080600501549080600601549080600701549080600801549080600901549080600a015490508c565b6000600182815481106106a9577f4e487b7100000000000000000000000000000000000000000000000000000000600052603260045260246000fd5b90600052602060002090600b02019050600060038111156106f3577f4e487b7100000000000000000000000000000000000000000000000000000000600052602160045260246000fd5b8160020160149054906101000a900460ff16600381111561073d577f4e487b7100000000000000000000000000000000000000000000000000000000600052602160045260246000fd5b1461077d576040517f08c379a000000000000000000000000000000000000000000000000000000000815260040161077490611407565b60405180910390fd5b8060000160009054906101000a900473ffffffffffffffffffffffffffffffffffffffff1673ffffffffffffffffffffffffffffffffffffffff163373ffffffffffffffffffffffffffffffffffffffff161461082a5780600901548160050154426107e991906115d5565b11610829576040517f08c379a000000000000000000000000000000000000000000000000000000000815260040161082090611427565b60405180910390fd5b5b60038160020160146101000a81548160ff02191690836003811115610878577f4e487b7100000000000000000000000000000000000000000000000000000000600052602160045260246000fd5b02179055508060010160009054906101000a900473ffffffffffffffffffffffffffffffffffffffff1673ffffffffffffffffffffffffffffffffffffffff166108fc82600301549081150290604051600060405180830381858888f193505050501580156108eb573d6000803e3d6000fd5b505050565b60006001805490507f61606860eb6c87306811e2695215385101daab53bd6ab4e9f9049aead9363c7d8560405161092791906113e5565b60405180910390a260016040518061018001604052803373ffffffffffffffffffffffffffffffffffffffff1681526020018773ffffffffffffffffffffffffffffffffffffffff16815260200160008054906101000a900473ffffffffffffffffffffffffffffffffffffffff1673ffffffffffffffffffffffffffffffffffffffff168152602001600060038111156109eb577f4e487b7100000000000000000000000000000000000000000000000000000000600052602160045260246000fd5b8152602001348152602001600081526020014281526020016000815260200160008152602001600081526020018581526020018481525090806001815401808255809150506001900390600052602060002090600b020160009091909190915060008201518160000160006101000a81548173ffffffffffffffffffffffffffffffffffffffff021916908373ffffffffffffffffffffffffffffffffffffffff16021790555060208201518160010160006101000a81548173ffffffffffffffffffffffffffffffffffffffff021916908373ffffffffffffffffffffffffffffffffffffffff16021790555060408201518160020160006101000a81548173ffffffffffffffffffffffffffffffffffffffff021916908373ffffffffffffffffffffffffffffffffffffffff16021790555060608201518160020160146101000a81548160ff02191690836003811115610b71577f4e487b7100000000000000000000000000000000000000000000000000000000600052602160045260246000fd5b02179055506080820151816003015560a0820151816004015560c0820151816005015560e0820151816006015561010082015181600701556101208201518160080155610140820151816009015561016082015181600a0155505060018080549050610bdd91906115d5565b9050949350505050565b600060018381548110610c23577f4e487b7100000000000000000000000000000000000000000000000000000000600052603260045260246000fd5b90600052602060002090600b02019050600380811115610c6c577f4e487b7100000000000000000000000000000000000000000000000000000000600052602160045260246000fd5b8160020160149054906101000a900460ff166003811115610cb6577f4e487b7100000000000000000000000000000000000000000000000000000000600052602160045260246000fd5b1415610cf7576040517f08c379a0000000000000000000000000000000000000000000000000000000008152600401610cee90611487565b60405180910390fd5b8060000160009054906101000a900473ffffffffffffffffffffffffffffffffffffffff1673ffffffffffffffffffffffffffffffffffffffff163373ffffffffffffffffffffffffffffffffffffffff161480610da457508060010160009054906101000a900473ffffffffffffffffffffffffffffffffffffffff1673ffffffffffffffffffffffffffffffffffffffff163373ffffffffffffffffffffffffffffffffffffffff16145b610de3576040517f08c379a0000000000000000000000000000000000000000000000000000000008152600401610dda90611447565b60405180910390fd5b3373ffffffffffffffffffffffffffffffffffffffff16838260020160009054906101000a900473ffffffffffffffffffffffffffffffffffffffff1673ffffffffffffffffffffffffffffffffffffffff167fdccf2f8b2cc26eafcd61905cba744cff4b81d14740725f6376390dc6298a6a3c85604051610e6591906113e5565b60405180910390a4505050565b6000610e85610e8084611533565b611502565b905082815260208101848484011115610e9d57600080fd5b610ea884828561168e565b509392505050565b600081359050610ebf81611782565b92915050565b600082601f830112610ed657600080fd5b8135610ee6848260208601610e72565b91505092915050565b600081359050610efe81611799565b92915050565b60008060008060808587031215610f1a57600080fd5b6000610f2887828801610eb0565b945050602085013567ffffffffffffffff811115610f4557600080fd5b610f5187828801610ec5565b9350506040610f6287828801610eef565b9250506060610f7387828801610eef565b91505092959194509250565b600060208284031215610f9157600080fd5b6000610f9f84828501610eef565b91505092915050565b60008060408385031215610fbb57600080fd5b6000610fc985828601610eef565b925050602083013567ffffffffffffffff811115610fe657600080fd5b610ff285828601610ec5565b9150509250929050565b6000806040838503121561100f57600080fd5b600061101d85828601610eef565b925050602061102e85828601610eef565b9150509250929050565b61104181611609565b82525050565b61105081611658565b82525050565b61105f8161167c565b82525050565b600061107082611563565b61107a818561156e565b935061108a81856020860161169d565b6110938161175d565b840191505092915050565b60006110ab60238361156e565b91507f5472616e73616374696f6e206973206e6f7420696e20696e697469616c20737460008301527f61746500000000000000000000000000000000000000000000000000000000006020830152604082019050919050565b6000611111601f8361156e565b91507f5061796572207374696c6c206861732074696d6520746f207265636c61696d006000830152602082019050919050565b600061115160308361156e565b91507f5468697264207061727469657320617265206e6f7420616c6c6f77656420746f60008301527f207375626d69742065766964656e6365000000000000000000000000000000006020830152604082019050919050565b60006111b760288361156e565b91507f4f6e6c79207468652061726269747261746f722063616e20657865637574652060008301527f612072756c696e670000000000000000000000000000000000000000000000006020830152604082019050919050565b600061121d60218361156e565b91507f5472616e73616374696f6e206e6f7420696e207265736f6c766564207374617460008301527f65000000000000000000000000000000000000000000000000000000000000006020830152604082019050919050565b600061128360148361156e565b91507f52756c696e67206f7574206f6620626f756e64730000000000000000000000006000830152602082019050919050565b60006112c3602d8361156e565b91507f54686572652073686f756c642062652061206469737075746520746f2065786560008301527f6375746520612072756c696e67000000000000000000000000000000000000006020830152604082019050919050565b6113258161164e565b82525050565b600061018082019050611341600083018f611038565b61134e602083018e611038565b61135b604083018d611047565b611368606083018c611056565b611375608083018b61131c565b61138260a083018a61131c565b61138f60c083018961131c565b61139c60e083018861131c565b6113aa61010083018761131c565b6113b861012083018661131c565b6113c661014083018561131c565b6113d461016083018461131c565b9d9c50505050505050505050505050565b600060208201905081810360008301526113ff8184611065565b905092915050565b600060208201905081810360008301526114208161109e565b9050919050565b6000602082019050818103600083015261144081611104565b9050919050565b6000602082019050818103600083015261146081611144565b9050919050565b60006020820190508181036000830152611480816111aa565b9050919050565b600060208201905081810360008301526114a081611210565b9050919050565b600060208201905081810360008301526114c081611276565b9050919050565b600060208201905081810360008301526114e0816112b6565b9050919050565b60006020820190506114fc600083018461131c565b92915050565b6000604051905081810181811067ffffffffffffffff821117156115295761152861172e565b5b8060405250919050565b600067ffffffffffffffff82111561154e5761154d61172e565b5b601f19601f8301169050602081019050919050565b600081519050919050565b600082825260208201905092915050565b600061158a8261164e565b91506115958361164e565b9250827fffffffffffffffffffffffffffffffffffffffffffffffffffffffffffffffff038211156115ca576115c96116d0565b5b828201905092915050565b60006115e08261164e565b91506115eb8361164e565b9250828210156115fe576115fd6116d0565b5b828203905092915050565b60006116148261162e565b9050919050565b60008190506116298261176e565b919050565b600073ffffffffffffffffffffffffffffffffffffffff82169050919050565b6000819050919050565b60006116638261166a565b9050919050565b60006116758261162e565b9050919050565b60006116878261161b565b9050919050565b82818337600083830152505050565b60005b838110156116bb5780820151818401526020810190506116a0565b838111156116ca576000848401525b50505050565b7f4e487b7100000000000000000000000000000000000000000000000000000000600052601160045260246000fd5b7f4e487b7100000000000000000000000000000000000000000000000000000000600052602160045260246000fd5b7f4e487b7100000000000000000000000000000000000000000000000000000000600052604160045260246000fd5b6000601f19601f8301169050919050565b6004811061177f5761177e6116ff565b5b50565b61178b81611609565b811461179657600080fd5b50565b6117a28161164e565b81146117ad57600080fd5b5056fea2646970667358221220e852d4bfb98cd8f0b22148d9056691886f0480a8c0207c5ae85f9416bb5bd70764736f6c63430008000033",
  "immutableReferences": {},
  "source": "// SPDX-License-Identifier: GPL-3.0\npragma solidity ^0.8.0;\n\nimport \"./interfaces/IArbitrable.sol\";\nimport \"./interfaces/IArbitrator.sol\";\nimport \"./interfaces/IEvidence.sol\";\n\ncontract Escrow is IArbitrable, IEvidence {\n  enum Status {Initial, Reclaimed, Disputed, Resolved}\n  enum RulingOptions {RefusedToArbitrate, PayerWins, PayeeWins}\n  uint256 constant numberOfRulingOptions = 2;\n  // for now, default arbitrator is Kleros Court on Kovan (later change to mainnet)\n  // why does wrapping address in IArbitrator work??\n  IArbitrator defaultArbitrator = IArbitrator(0x60B2AbfDfaD9c0873242f59f2A8c32A3Cc682f80);\n\n  struct Contract {\n    address payable payer;\n    address payable payee;\n    IArbitrator arbitrator;\n    Status status;\n    uint256 value;\n    uint256 disputeID;\n    uint256 createdAt;\n    uint256 reclaimedAt;\n    uint256 payerFeeDeposit;\n    uint256 payeeFeeDeposit;\n    uint256 reclamationPeriod;\n    uint256 arbitrationFeeDepositPeriod;\n  }\n\n  Contract[] public contracts;\n  mapping (uint256 => uint256) disputeIDtoContractID;\n\n  function createNewContract(\n    address payable _payee,\n    string memory _metaEvidence, \n    uint256 _reclamationPeriod, \n    uint256 _arbitrationFeeDepositPeriod\n    ) public payable returns (uint256 contractID) {\n      emit MetaEvidence(contracts.length, _metaEvidence);\n\n      contracts.push(\n        Contract({\n          payer: payable(msg.sender),\n          payee: _payee,\n          arbitrator: defaultArbitrator,\n          status: Status.Initial,\n          value: msg.value,\n          disputeID: 0,\n          createdAt: block.timestamp,\n          reclaimedAt: 0,\n          payerFeeDeposit: 0,\n          payeeFeeDeposit: 0,\n          reclamationPeriod: _reclamationPeriod,\n          arbitrationFeeDepositPeriod: _arbitrationFeeDepositPeriod\n        })\n      );\n\n      contractID = contracts.length - 1;\n  }\n\n  function releaseFunds(uint256 _contractID) public {\n    Contract storage transaction = contracts[_contractID];\n    require(transaction.status == Status.Initial, \"Transaction is not in initial state\");\n\n    // payee can only reclaim funds if the reclamationPeriod has passed\n    if (msg.sender != transaction.payer) {\n      require(block.timestamp - transaction.createdAt > transaction.reclamationPeriod, \"Payer still has time to reclaim\");\n    }\n\n    // payer can release funds to payee at any time\n    transaction.status = Status.Resolved;\n    transaction.payee.transfer(transaction.value);\n  }\n\n  // this is the place where we put the rules to enforce the ruling, which the arbitrator decides\n  // Note: does NOT handle refusedToArbitrate event\n  function rule(uint256 _disputeID, uint256 _ruling) override public {\n    uint256 txID = disputeIDtoContractID[_disputeID];\n    Contract storage transaction = contracts[txID];\n\n    // first check if the caller has the right to rule on the contract\n    require(msg.sender == address(transaction.arbitrator), \"Only the arbitrator can execute a ruling\");\n    // require status to be in disputed state\n    require(transaction.status == Status.Disputed, \"There should be a dispute to execute a ruling\");\n    require(_ruling <= numberOfRulingOptions, \"Ruling out of bounds\");\n\n    transaction.status = Status.Resolved;\n    // return contract balance (escrowFunds + arbitratorFee) to whoever won\n    if (_ruling == uint256(RulingOptions.PayerWins)) {\n      transaction.payer.transfer(transaction.value + transaction.payerFeeDeposit);\n    } else if (_ruling == uint256(RulingOptions.PayeeWins)) {\n      transaction.payee.transfer(transaction.value + transaction.payeeFeeDeposit);\n    }\n    emit Ruling(transaction.arbitrator, _disputeID, _ruling);\n  }\n\n  function submitEvidence(uint256 _contractID, string memory _evidence) public {\n    Contract storage transaction = contracts[_contractID];\n    require(transaction.status != Status.Resolved, \"Transaction not in resolved state\");\n    require(msg.sender == transaction.payer || msg.sender == transaction.payee, \"Third parties are not allowed to submit evidence\");\n    emit Evidence(transaction.arbitrator, _contractID, msg.sender, _evidence);\n  }\n}",
  "sourcePath": "/home/victor/kairos/backend/contracts/Escrow.sol",
  "compiler": {
    "name": "solc",
    "version": "0.8.0+commit.c7dfd78e.Emscripten.clang"
  },
  "schemaVersion": "3.3.4",
  "updatedAt": "2021-06-30T14:38:11.392Z",
  "devdoc": {
    "kind": "dev",
    "methods": {
      "rule(uint256,uint256)": {
        "details": "Give a ruling for a dispute. Must be called by the arbitrator. The purpose of this function is to ensure that the address calling it has the right to rule on the contract.",
        "params": {
          "_disputeID": "ID of the dispute in the Arbitrator contract.",
          "_ruling": "Ruling given by the arbitrator. Note that 0 is reserved for \"Not able/wanting to make a decision\"."
        }
      }
    },
    "version": 1
  },
  "userdoc": {
    "kind": "user",
    "methods": {},
    "version": 1
  }
}