{
  "contractName": "SimpleEscrow",
  "abi": [
    {
      "inputs": [
        {
          "internalType": "address payable",
          "name": "_payee",
          "type": "address"
        },
        {
          "internalType": "contract IArbitrator",
          "name": "_arbitrator",
          "type": "address"
        },
        {
          "internalType": "string",
          "name": "_metaevidence",
          "type": "string"
        }
      ],
      "stateMutability": "payable",
      "type": "constructor"
    },
    {
      "anonymous": false,
      "inputs": [
        {
          "indexed": true,
          "internalType": "contract IArbitrator",
          "name": "_arbitrator",
          "type": "address"
        },
        {
          "indexed": true,
          "internalType": "uint256",
          "name": "_disputeID",
          "type": "uint256"
        },
        {
          "indexed": false,
          "internalType": "uint256",
          "name": "_metaEvidenceID",
          "type": "uint256"
        },
        {
          "indexed": false,
          "internalType": "uint256",
          "name": "_evidenceGroupID",
          "type": "uint256"
        }
      ],
      "name": "Dispute",
      "type": "event"
    },
    {
      "anonymous": false,
      "inputs": [
        {
          "indexed": true,
          "internalType": "contract IArbitrator",
          "name": "_arbitrator",
          "type": "address"
        },
        {
          "indexed": true,
          "internalType": "uint256",
          "name": "_evidenceGroupID",
          "type": "uint256"
        },
        {
          "indexed": true,
          "internalType": "address",
          "name": "_party",
          "type": "address"
        },
        {
          "indexed": false,
          "internalType": "string",
          "name": "_evidence",
          "type": "string"
        }
      ],
      "name": "Evidence",
      "type": "event"
    },
    {
      "anonymous": false,
      "inputs": [
        {
          "indexed": true,
          "internalType": "uint256",
          "name": "_metaEvidenceID",
          "type": "uint256"
        },
        {
          "indexed": false,
          "internalType": "string",
          "name": "_evidence",
          "type": "string"
        }
      ],
      "name": "MetaEvidence",
      "type": "event"
    },
    {
      "anonymous": false,
      "inputs": [
        {
          "indexed": true,
          "internalType": "contract IArbitrator",
          "name": "_arbitrator",
          "type": "address"
        },
        {
          "indexed": true,
          "internalType": "uint256",
          "name": "_disputeID",
          "type": "uint256"
        },
        {
          "indexed": false,
          "internalType": "uint256",
          "name": "_ruling",
          "type": "uint256"
        }
      ],
      "name": "Ruling",
      "type": "event"
    },
    {
      "inputs": [],
      "name": "arbitrationFeeDepositPeriod",
      "outputs": [
        {
          "internalType": "uint256",
          "name": "",
          "type": "uint256"
        }
      ],
      "stateMutability": "view",
      "type": "function"
    },
    {
      "inputs": [],
      "name": "arbitrator",
      "outputs": [
        {
          "internalType": "contract IArbitrator",
          "name": "",
          "type": "address"
        }
      ],
      "stateMutability": "view",
      "type": "function"
    },
    {
      "inputs": [],
      "name": "createdAt",
      "outputs": [
        {
          "internalType": "uint256",
          "name": "",
          "type": "uint256"
        }
      ],
      "stateMutability": "view",
      "type": "function"
    },
    {
      "inputs": [],
      "name": "payee",
      "outputs": [
        {
          "internalType": "address payable",
          "name": "",
          "type": "address"
        }
      ],
      "stateMutability": "view",
      "type": "function"
    },
    {
      "inputs": [],
      "name": "payer",
      "outputs": [
        {
          "internalType": "address payable",
          "name": "",
          "type": "address"
        }
      ],
      "stateMutability": "view",
      "type": "function"
    },
    {
      "inputs": [],
      "name": "reclaimedAt",
      "outputs": [
        {
          "internalType": "uint256",
          "name": "",
          "type": "uint256"
        }
      ],
      "stateMutability": "view",
      "type": "function"
    },
    {
      "inputs": [],
      "name": "reclamationPeriod",
      "outputs": [
        {
          "internalType": "uint256",
          "name": "",
          "type": "uint256"
        }
      ],
      "stateMutability": "view",
      "type": "function"
    },
    {
      "inputs": [],
      "name": "status",
      "outputs": [
        {
          "internalType": "enum SimpleEscrow.Status",
          "name": "",
          "type": "uint8"
        }
      ],
      "stateMutability": "view",
      "type": "function"
    },
    {
      "inputs": [],
      "name": "value",
      "outputs": [
        {
          "internalType": "uint256",
          "name": "",
          "type": "uint256"
        }
      ],
      "stateMutability": "view",
      "type": "function"
    },
    {
      "inputs": [],
      "name": "releaseFunds",
      "outputs": [],
      "stateMutability": "nonpayable",
      "type": "function"
    },
    {
      "inputs": [],
      "name": "reclaimFunds",
      "outputs": [],
      "stateMutability": "payable",
      "type": "function"
    },
    {
      "inputs": [
        {
          "internalType": "uint256",
          "name": "_disputeID",
          "type": "uint256"
        },
        {
          "internalType": "uint256",
          "name": "_ruling",
          "type": "uint256"
        }
      ],
      "name": "rule",
      "outputs": [],
      "stateMutability": "nonpayable",
      "type": "function"
    },
    {
      "inputs": [],
      "name": "depositArbitrationFeeForPayee",
      "outputs": [],
      "stateMutability": "payable",
      "type": "function"
    },
    {
      "inputs": [],
      "name": "remainingTimeToReclaim",
      "outputs": [
        {
          "internalType": "uint256",
          "name": "",
          "type": "uint256"
        }
      ],
      "stateMutability": "view",
      "type": "function"
    },
    {
      "inputs": [],
      "name": "remainingTimeToDepositArbitrationFee",
      "outputs": [
        {
          "internalType": "uint256",
          "name": "",
          "type": "uint256"
        }
      ],
      "stateMutability": "view",
      "type": "function"
    },
    {
      "inputs": [
        {
          "internalType": "string",
          "name": "_evidence",
          "type": "string"
        }
      ],
      "name": "submitEvidence",
      "outputs": [],
      "stateMutability": "nonpayable",
      "type": "function"
    }
  ],
  "bytecode": "0x6080604052336000806101000a81548173ffffffffffffffffffffffffffffffffffffffff021916908373ffffffffffffffffffffffffffffffffffffffff160217905550604051620026f6380380620026f68339818101604052810190620000699190620001dd565b3460028190555082600160006101000a81548173ffffffffffffffffffffffffffffffffffffffff021916908373ffffffffffffffffffffffffffffffffffffffff16021790555081600360006101000a81548173ffffffffffffffffffffffffffffffffffffffff021916908373ffffffffffffffffffffffffffffffffffffffff1602179055504260048190555060007f61606860eb6c87306811e2695215385101daab53bd6ab4e9f9049aead9363c7d826040516200012c91906200028d565b60405180910390a25050506200043a565b6000620001546200014e84620002e5565b620002b1565b9050828152602081018484840111156200016d57600080fd5b6200017a84828562000390565b509392505050565b600081519050620001938162000406565b92915050565b600081519050620001aa8162000420565b92915050565b600082601f830112620001c257600080fd5b8151620001d48482602086016200013d565b91505092915050565b600080600060608486031215620001f357600080fd5b6000620002038682870162000182565b9350506020620002168682870162000199565b925050604084015167ffffffffffffffff8111156200023457600080fd5b6200024286828701620001b0565b9150509250925092565b6000620002598262000318565b62000265818562000323565b93506200027781856020860162000390565b6200028281620003f5565b840191505092915050565b60006020820190508181036000830152620002a981846200024c565b905092915050565b6000604051905081810181811067ffffffffffffffff82111715620002db57620002da620003c6565b5b8060405250919050565b600067ffffffffffffffff821115620003035762000302620003c6565b5b601f19601f8301169050602081019050919050565b600081519050919050565b600082825260208201905092915050565b6000620003418262000370565b9050919050565b6000620003558262000370565b9050919050565b6000620003698262000334565b9050919050565b600073ffffffffffffffffffffffffffffffffffffffff82169050919050565b60005b83811015620003b057808201518184015260208101905062000393565b83811115620003c0576000848401525b50505050565b7f4e487b7100000000000000000000000000000000000000000000000000000000600052604160045260246000fd5b6000601f19601f8301169050919050565b620004118162000348565b81146200041d57600080fd5b50565b6200042b816200035c565b81146200043757600080fd5b50565b6122ac806200044a6000396000f3fe6080604052600436106100f35760003560e01c80636cc6cde11161008a578063bac91e2e11610059578063bac91e2e146102c5578063cce4bd52146102ee578063cf09e0d0146102f8578063f7e1aafd14610323576100f3565b80636cc6cde11461023a578063762b829514610265578063ae90b21314610290578063b6844f13146102bb576100f3565b8063345a47ea116100c6578063345a47ea146101a25780633fa4f245146101cd57806369d89575146101f85780636b0aac711461020f576100f3565b8063123119cd146100f8578063200d2ed21461012357806322c500a01461014e578063311a6c5614610179575b600080fd5b34801561010457600080fd5b5061010d61034e565b60405161011a9190611cc9565b60405180910390f35b34801561012f57600080fd5b50610138610372565b6040516101459190611cff565b60405180910390f35b34801561015a57600080fd5b50610163610385565b6040516101709190611f5c565b60405180910390f35b34801561018557600080fd5b506101a0600480360381019061019b9190611636565b610484565b005b3480156101ae57600080fd5b506101b7610838565b6040516101c49190611f5c565b60405180910390f35b3480156101d957600080fd5b506101e261083d565b6040516101ef9190611f5c565b60405180910390f35b34801561020457600080fd5b5061020d610843565b005b34801561021b57600080fd5b50610224610a67565b6040516102319190611f5c565b60405180910390f35b34801561024657600080fd5b5061024f610a6d565b60405161025c9190611ce4565b60405180910390f35b34801561027157600080fd5b5061027a610a93565b6040516102879190611f5c565b60405180910390f35b34801561029c57600080fd5b506102a5610a98565b6040516102b29190611cc9565b60405180910390f35b6102c3610abe565b005b3480156102d157600080fd5b506102ec60048036038101906102e791906115cc565b610d4c565b005b6102f6610f80565b005b34801561030457600080fd5b5061030d611434565b60405161031a9190611f5c565b60405180910390f35b34801561032f57600080fd5b5061033861143a565b6040516103459190611f5c565b60405180910390f35b60008054906101000a900473ffffffffffffffffffffffffffffffffffffffff1681565b600560009054906101000a900460ff1681565b60008060038111156103c0577f4e487b7100000000000000000000000000000000000000000000000000000000600052602160045260246000fd5b600560009054906101000a900460ff166003811115610408577f4e487b7100000000000000000000000000000000000000000000000000000000600052602160045260246000fd5b14610448576040517f08c379a000000000000000000000000000000000000000000000000000000000815260040161043f90611ebc565b60405180910390fd5b60b46004544261045891906120b2565b1161047c574260b460045461046d919061205c565b61047791906120b2565b61047f565b60005b905090565b600360009054906101000a900473ffffffffffffffffffffffffffffffffffffffff1673ffffffffffffffffffffffffffffffffffffffff163373ffffffffffffffffffffffffffffffffffffffff1614610514576040517f08c379a000000000000000000000000000000000000000000000000000000000815260040161050b90611e1c565b60405180910390fd5b6002600381111561054e577f4e487b7100000000000000000000000000000000000000000000000000000000600052602160045260246000fd5b600560009054906101000a900460ff166003811115610596577f4e487b7100000000000000000000000000000000000000000000000000000000600052602160045260246000fd5b146105d6576040517f08c379a00000000000000000000000000000000000000000000000000000000081526004016105cd90611efc565b60405180910390fd5b600281111561061a576040517f08c379a000000000000000000000000000000000000000000000000000000000815260040161061190611e7c565b60405180910390fd5b6003600560006101000a81548160ff02191690836003811115610666577f4e487b7100000000000000000000000000000000000000000000000000000000600052602160045260246000fd5b0217905550600160028111156106a5577f4e487b7100000000000000000000000000000000000000000000000000000000600052602160045260246000fd5b8114156107185760008054906101000a900473ffffffffffffffffffffffffffffffffffffffff1673ffffffffffffffffffffffffffffffffffffffff166108fc479081150290604051600060405180830381858888f19350505050158015610712573d6000803e3d6000fd5b506107c3565b600280811115610751577f4e487b7100000000000000000000000000000000000000000000000000000000600052602160045260246000fd5b8114156107c257600160009054906101000a900473ffffffffffffffffffffffffffffffffffffffff1673ffffffffffffffffffffffffffffffffffffffff166108fc479081150290604051600060405180830381858888f193505050501580156107c0573d6000803e3d6000fd5b505b5b81600360009054906101000a900473ffffffffffffffffffffffffffffffffffffffff1673ffffffffffffffffffffffffffffffffffffffff167f394027a5fa6e098a1191094d1719d6929b9abc535fcc0c8f448d6a4e756222768360405161082c9190611f5c565b60405180910390a35050565b60b481565b60025481565b6000600381111561087d577f4e487b7100000000000000000000000000000000000000000000000000000000600052602160045260246000fd5b600560009054906101000a900460ff1660038111156108c5577f4e487b7100000000000000000000000000000000000000000000000000000000600052602160045260246000fd5b14610905576040517f08c379a00000000000000000000000000000000000000000000000000000000081526004016108fc90611d5c565b60405180910390fd5b60008054906101000a900473ffffffffffffffffffffffffffffffffffffffff1673ffffffffffffffffffffffffffffffffffffffff163373ffffffffffffffffffffffffffffffffffffffff16146109a95760b46004544261096891906120b2565b116109a8576040517f08c379a000000000000000000000000000000000000000000000000000000000815260040161099f90611d7c565b60405180910390fd5b5b6003600560006101000a81548160ff021916908360038111156109f5577f4e487b7100000000000000000000000000000000000000000000000000000000600052602160045260246000fd5b0217905550600160009054906101000a900473ffffffffffffffffffffffffffffffffffffffff1673ffffffffffffffffffffffffffffffffffffffff166108fc6002549081150290604051600060405180830381858888f19350505050158015610a64573d6000803e3d6000fd5b50565b60065481565b600360009054906101000a900473ffffffffffffffffffffffffffffffffffffffff1681565b60b481565b600160009054906101000a900473ffffffffffffffffffffffffffffffffffffffff1681565b60016003811115610af8577f4e487b7100000000000000000000000000000000000000000000000000000000600052602160045260246000fd5b600560009054906101000a900460ff166003811115610b40577f4e487b7100000000000000000000000000000000000000000000000000000000600052602160045260246000fd5b14610b80576040517f08c379a0000000000000000000000000000000000000000000000000000000008152600401610b7790611f1c565b60405180910390fd5b60b460065442610b9091906120b2565b1115610bd1576040517f08c379a0000000000000000000000000000000000000000000000000000000008152600401610bc890611f3c565b60405180910390fd5b6000600360009054906101000a900473ffffffffffffffffffffffffffffffffffffffff1673ffffffffffffffffffffffffffffffffffffffff1663c13517e13460026040518363ffffffff1660e01b8152600401610c309190611f77565b6020604051808303818588803b158015610c4957600080fd5b505af1158015610c5d573d6000803e3d6000fd5b50505050506040513d601f19601f82011682018060405250810190610c82919061160d565b90506002600560006101000a81548160ff02191690836003811115610cd0577f4e487b7100000000000000000000000000000000000000000000000000000000600052602160045260246000fd5b021790555080600360009054906101000a900473ffffffffffffffffffffffffffffffffffffffff1673ffffffffffffffffffffffffffffffffffffffff167f74baab670a4015ab2f1b467c5252a96141a2573f2908e58a92081e80d3cfde3d600080604051610d41929190611fa5565b60405180910390a350565b600380811115610d85577f4e487b7100000000000000000000000000000000000000000000000000000000600052602160045260246000fd5b600560009054906101000a900460ff166003811115610dcd577f4e487b7100000000000000000000000000000000000000000000000000000000600052602160045260246000fd5b1415610e0e576040517f08c379a0000000000000000000000000000000000000000000000000000000008152600401610e0590611e3c565b60405180910390fd5b60008054906101000a900473ffffffffffffffffffffffffffffffffffffffff1673ffffffffffffffffffffffffffffffffffffffff163373ffffffffffffffffffffffffffffffffffffffff161480610eb55750600160009054906101000a900473ffffffffffffffffffffffffffffffffffffffff1673ffffffffffffffffffffffffffffffffffffffff163373ffffffffffffffffffffffffffffffffffffffff16145b610ef4576040517f08c379a0000000000000000000000000000000000000000000000000000000008152600401610eeb90611d9c565b60405180910390fd5b3373ffffffffffffffffffffffffffffffffffffffff166000600360009054906101000a900473ffffffffffffffffffffffffffffffffffffffff1673ffffffffffffffffffffffffffffffffffffffff167fdccf2f8b2cc26eafcd61905cba744cff4b81d14740725f6376390dc6298a6a3c84604051610f759190611d1a565b60405180910390a450565b60006003811115610fba577f4e487b7100000000000000000000000000000000000000000000000000000000600052602160045260246000fd5b600560009054906101000a900460ff166003811115611002577f4e487b7100000000000000000000000000000000000000000000000000000000600052602160045260246000fd5b148061108d575060016003811115611043577f4e487b7100000000000000000000000000000000000000000000000000000000600052602160045260246000fd5b600560009054906101000a900460ff16600381111561108b577f4e487b7100000000000000000000000000000000000000000000000000000000600052602160045260246000fd5b145b6110cc576040517f08c379a00000000000000000000000000000000000000000000000000000000081526004016110c390611ddc565b60405180910390fd5b60008054906101000a900473ffffffffffffffffffffffffffffffffffffffff1673ffffffffffffffffffffffffffffffffffffffff163373ffffffffffffffffffffffffffffffffffffffff161461115a576040517f08c379a000000000000000000000000000000000000000000000000000000000815260040161115190611d3c565b60405180910390fd5b60016003811115611194577f4e487b7100000000000000000000000000000000000000000000000000000000600052602160045260246000fd5b600560009054906101000a900460ff1660038111156111dc577f4e487b7100000000000000000000000000000000000000000000000000000000600052602160045260246000fd5b141561129e5760b4600654426111f291906120b2565b11611232576040517f08c379a000000000000000000000000000000000000000000000000000000000815260040161122990611e9c565b60405180910390fd5b60008054906101000a900473ffffffffffffffffffffffffffffffffffffffff1673ffffffffffffffffffffffffffffffffffffffff166108fc479081150290604051600060405180830381858888f19350505050158015611298573d6000803e3d6000fd5b50611432565b60b4600454426112ae91906120b2565b11156112ef576040517f08c379a00000000000000000000000000000000000000000000000000000000081526004016112e690611e5c565b60405180910390fd5b600360009054906101000a900473ffffffffffffffffffffffffffffffffffffffff1673ffffffffffffffffffffffffffffffffffffffff1663f7434ea96040518163ffffffff1660e01b815260040161134890611edc565b60206040518083038186803b15801561136057600080fd5b505afa158015611374573d6000803e3d6000fd5b505050506040513d601f19601f82011682018060405250810190611398919061160d565b34146113d9576040517f08c379a00000000000000000000000000000000000000000000000000000000081526004016113d090611dbc565b60405180910390fd5b426006819055506001600560006101000a81548160ff0219169083600381111561142c577f4e487b7100000000000000000000000000000000000000000000000000000000600052602160045260246000fd5b02179055505b565b60045481565b600060016003811115611476577f4e487b7100000000000000000000000000000000000000000000000000000000600052602160045260246000fd5b600560009054906101000a900460ff1660038111156114be577f4e487b7100000000000000000000000000000000000000000000000000000000600052602160045260246000fd5b146114fe576040517f08c379a00000000000000000000000000000000000000000000000000000000081526004016114f590611dfc565b60405180910390fd5b60b46006544261150e91906120b2565b11611532574260b4600654611523919061205c565b61152d91906120b2565b611535565b60005b905090565b600061154d61154884611fff565b611fce565b90508281526020810184848401111561156557600080fd5b61157084828561216b565b509392505050565b600082601f83011261158957600080fd5b813561159984826020860161153a565b91505092915050565b6000813590506115b18161225f565b92915050565b6000815190506115c68161225f565b92915050565b6000602082840312156115de57600080fd5b600082013567ffffffffffffffff8111156115f857600080fd5b61160484828501611578565b91505092915050565b60006020828403121561161f57600080fd5b600061162d848285016115b7565b91505092915050565b6000806040838503121561164957600080fd5b6000611657858286016115a2565b9250506020611668858286016115a2565b9150509250929050565b61167b816120e6565b82525050565b61168a81612135565b82525050565b61169981612159565b82525050565b60006116aa8261202f565b6116b4818561204b565b93506116c481856020860161217a565b6116cd8161223a565b840191505092915050565b60006116e5601c8361204b565b91507f4f6e6c792070617965722063616e207265636c61696d2066756e6473000000006000830152602082019050919050565b600061172560238361204b565b91507f5472616e73616374696f6e206973206e6f7420696e20696e697469616c20737460008301527f61746500000000000000000000000000000000000000000000000000000000006020830152604082019050919050565b600061178b601f8361204b565b91507f5061796572207374696c6c206861732074696d6520746f207265636c61696d006000830152602082019050919050565b60006117cb60308361204b565b91507f5468697264207061727469657320617265206e6f7420616c6c6f77656420746f60008301527f207375626d69742065766964656e6365000000000000000000000000000000006020830152604082019050919050565b6000611831603a8361204b565b91507f43616e2774207265636c61696d2066756e647320776974686f7574206465706f60008301527f736974696e6720746865206172626974726174696f6e206665650000000000006020830152604082019050919050565b600061189760338361204b565b91507f5472616e73616374696f6e206973206e6f7420696e20616e20696e697469616c60008301527f206f72207265636c61696d6564207374617465000000000000000000000000006020830152604082019050919050565b60006118fd60258361204b565b91507f5472616e73616374696f6e206973206e6f7420696e205265636c61696d65642060008301527f73746174650000000000000000000000000000000000000000000000000000006020830152604082019050919050565b600061196360288361204b565b91507f4f6e6c79207468652061726269747261746f722063616e20657865637574652060008301527f612072756c696e670000000000000000000000000000000000000000000000006020830152604082019050919050565b60006119c960218361204b565b91507f5472616e73616374696f6e206e6f7420696e207265736f6c766564207374617460008301527f65000000000000000000000000000000000000000000000000000000000000006020830152604082019050919050565b6000611a2f60188361204b565b91507f5265636c616d6174696f6e20706572696f6420656e64656400000000000000006000830152602082019050919050565b6000611a6f60148361204b565b91507f52756c696e67206f7574206f6620626f756e64730000000000000000000000006000830152602082019050919050565b6000611aaf602f8361204b565b91507f5061796565207374696c6c206861732074696d6520746f206465706f7369742060008301527f6172626974726174696f6e2066656500000000000000000000000000000000006020830152604082019050919050565b6000611b1560238361204b565b91507f5472616e73616374696f6e206973206e6f7420696e20496e697469616c20737460008301527f61746500000000000000000000000000000000000000000000000000000000006020830152604082019050919050565b6000611b7b60008361203a565b9150600082019050919050565b6000611b95602d8361204b565b91507f54686572652073686f756c642062652061206469737075746520746f2065786560008301527f6375746520612072756c696e67000000000000000000000000000000000000006020830152604082019050919050565b6000611bfb60258361204b565b91507f5472616e73616374696f6e206973206e6f7420696e207265636c61696d65642060008301527f73746174650000000000000000000000000000000000000000000000000000006020830152604082019050919050565b6000611c6160268361204b565b91507f4172626974726174696f6e20666565206465706f73697420706572696f64206560008301527f6c617073656400000000000000000000000000000000000000000000000000006020830152604082019050919050565b611cc38161212b565b82525050565b6000602082019050611cde6000830184611672565b92915050565b6000602082019050611cf96000830184611681565b92915050565b6000602082019050611d146000830184611690565b92915050565b60006020820190508181036000830152611d34818461169f565b905092915050565b60006020820190508181036000830152611d55816116d8565b9050919050565b60006020820190508181036000830152611d7581611718565b9050919050565b60006020820190508181036000830152611d958161177e565b9050919050565b60006020820190508181036000830152611db5816117be565b9050919050565b60006020820190508181036000830152611dd581611824565b9050919050565b60006020820190508181036000830152611df58161188a565b9050919050565b60006020820190508181036000830152611e15816118f0565b9050919050565b60006020820190508181036000830152611e3581611956565b9050919050565b60006020820190508181036000830152611e55816119bc565b9050919050565b60006020820190508181036000830152611e7581611a22565b9050919050565b60006020820190508181036000830152611e9581611a62565b9050919050565b60006020820190508181036000830152611eb581611aa2565b9050919050565b60006020820190508181036000830152611ed581611b08565b9050919050565b60006020820190508181036000830152611ef581611b6e565b9050919050565b60006020820190508181036000830152611f1581611b88565b9050919050565b60006020820190508181036000830152611f3581611bee565b9050919050565b60006020820190508181036000830152611f5581611c54565b9050919050565b6000602082019050611f716000830184611cba565b92915050565b6000604082019050611f8c6000830184611cba565b8181036020830152611f9d81611b6e565b905092915050565b6000604082019050611fba6000830185611cba565b611fc76020830184611cba565b9392505050565b6000604051905081810181811067ffffffffffffffff82111715611ff557611ff461220b565b5b8060405250919050565b600067ffffffffffffffff82111561201a5761201961220b565b5b601f19601f8301169050602081019050919050565b600081519050919050565b600082825260208201905092915050565b600082825260208201905092915050565b60006120678261212b565b91506120728361212b565b9250827fffffffffffffffffffffffffffffffffffffffffffffffffffffffffffffffff038211156120a7576120a66121ad565b5b828201905092915050565b60006120bd8261212b565b91506120c88361212b565b9250828210156120db576120da6121ad565b5b828203905092915050565b60006120f18261210b565b9050919050565b60008190506121068261224b565b919050565b600073ffffffffffffffffffffffffffffffffffffffff82169050919050565b6000819050919050565b600061214082612147565b9050919050565b60006121528261210b565b9050919050565b6000612164826120f8565b9050919050565b82818337600083830152505050565b60005b8381101561219857808201518184015260208101905061217d565b838111156121a7576000848401525b50505050565b7f4e487b7100000000000000000000000000000000000000000000000000000000600052601160045260246000fd5b7f4e487b7100000000000000000000000000000000000000000000000000000000600052602160045260246000fd5b7f4e487b7100000000000000000000000000000000000000000000000000000000600052604160045260246000fd5b6000601f19601f8301169050919050565b6004811061225c5761225b6121dc565b5b50565b6122688161212b565b811461227357600080fd5b5056fea26469706673582212203fe8bc33b29c362e6b6ef27bdb05647205ef324bedccb9ca28d890d6f3a7b80364736f6c63430008000033",
  "immutableReferences": {},
  "source": "// SPDX-License-Identifier: GPL-3.0\npragma solidity ^0.8.0;\n\nimport \"./IArbitrable.sol\";\nimport \"./IArbitrator.sol\";\nimport \"./IEvidence.sol\";\n\ncontract SimpleEscrow is IArbitrable, IEvidence {\n  address payable public payer = payable(msg.sender);\n  address payable public payee;\n  uint256 public value;\n  IArbitrator public arbitrator;\n  uint256 public createdAt;\n  // time is set to short, for testing purposes\n  uint256 public constant reclamationPeriod = 3 minutes;\n  uint256 public constant arbitrationFeeDepositPeriod = 3 minutes;\n\n  enum Status {Initial, Reclaimed, Disputed, Resolved}\n  Status public status;\n  uint256 public reclaimedAt;\n\n  enum RulingOptions {RefusedToArbitrate, PayerWins, PayeeWins}\n  uint256 constant numberOfRulingOptions = 2;\n\n  uint256 constant metaEvidenceID = 0;\n  uint256 constant evidenceGroupID = 0;\n\n  constructor(address payable _payee, IArbitrator _arbitrator, string memory _metaevidence) payable {\n    value = msg.value;\n    payee = _payee;\n    arbitrator = _arbitrator;\n    createdAt = block.timestamp;\n\n    emit MetaEvidence(metaEvidenceID, _metaevidence);\n  }\n\n  function releaseFunds() public {\n    require(status == Status.Initial, \"Transaction is not in initial state\");\n\n    // payee can only reclaim funds if the reclamationPeriod has passed\n    if (msg.sender != payer) {\n      require(block.timestamp - createdAt > reclamationPeriod, \"Payer still has time to reclaim\");\n    }\n\n    // payer can release funds to payee at any time\n    status = Status.Resolved;\n    payee.transfer(value);\n  }\n\n  function reclaimFunds() public payable {\n    require(\n      status == Status.Initial || status == Status.Reclaimed,\n      \"Transaction is not in an initial or reclaimed state\"\n    );\n\n    require(msg.sender == payer, \"Only payer can reclaim funds\");\n\n    // if payer has already called function, putting status in a reclaimed state AND the payee hasn't deposited the\n    // arbitration fee, then the payer can reclaim the funds in escrow\n    if (status == Status.Reclaimed) {\n      require(\n        block.timestamp - reclaimedAt > arbitrationFeeDepositPeriod,\n        \"Payee still has time to deposit arbitration fee\"\n      );\n      // payer wins by default and gets refunded escrowBalance + arbitrationFee\n      payer.transfer(address(this).balance);\n    } else {\n      // otherwise, payer is calling reclaim for the first time, and must check to see if contract is still in period\n      require(block.timestamp - createdAt <= reclamationPeriod, \"Reclamation period ended\");\n      // require the payer to pay arbitration fee\n      require(\n        msg.value == arbitrator.arbitrationCost(\"\"),\n        \"Can't reclaim funds without depositing the arbitration fee\"\n      );\n      reclaimedAt = block.timestamp; // start the reclamation phase\n      status = Status.Reclaimed; // set contract status to reclaimed state\n    }\n  }\n\n  // this is the place where we put the rules to enforce the ruling, which the arbitrator decides\n  // Note: does NOT handle refusedToArbitrate event\n  function rule(uint256 _disputeID, uint256 _ruling) override public {\n    // first check if the caller has the right to rule on the contract\n    require(msg.sender == address(arbitrator), \"Only the arbitrator can execute a ruling\");\n    // require status to be in disputed state\n    require(status == Status.Disputed, \"There should be a dispute to execute a ruling\");\n    require(_ruling <= numberOfRulingOptions, \"Ruling out of bounds\");\n\n    status = Status.Resolved;\n    // return contract balance (escrowFunds + arbitratorFee) to whoever won\n    if (_ruling == uint256(RulingOptions.PayerWins)) {\n      payer.transfer(address(this).balance);\n    } else if (_ruling == uint256(RulingOptions.PayeeWins)) {\n      payee.transfer(address(this).balance);\n    }\n    emit Ruling(arbitrator, _disputeID, _ruling);\n  }\n\n  function depositArbitrationFeeForPayee() public payable {\n    // check that state of contract is reclaimed\n    require(status == Status.Reclaimed, \"Transaction is not in reclaimed state\");\n    // doesn't there need to be a check for if the arbitrationFeeDepositPeriod has ended?\n    require(block.timestamp - reclaimedAt <= arbitrationFeeDepositPeriod, \"Arbitration fee deposit period elapsed\");\n\n    // if checks pass, deposit payee arbitration fee into ARBITRATOR contract balance, and open a dispute\n    uint256 disputeID = arbitrator.createDispute{value: msg.value}(numberOfRulingOptions, \"\");\n    status = Status.Disputed;\n\n    // emit dispute event\n    emit Dispute(arbitrator, disputeID, metaEvidenceID, evidenceGroupID);\n  }\n\n  function remainingTimeToReclaim() public view returns (uint256) {\n    require(status == Status.Initial, \"Transaction is not in Initial state\");\n    return (block.timestamp - createdAt) > reclamationPeriod ? 0 : (createdAt + reclamationPeriod - block.timestamp);\n  }\n\n  function remainingTimeToDepositArbitrationFee() public view returns (uint256) {\n    require(status == Status.Reclaimed, \"Transaction is not in Reclaimed state\");\n    return (block.timestamp - reclaimedAt) > arbitrationFeeDepositPeriod ? 0 : (reclaimedAt + arbitrationFeeDepositPeriod - block.timestamp);\n  }\n\n  function submitEvidence(string memory _evidence) public {\n    require(status != Status.Resolved, \"Transaction not in resolved state\");\n    require(msg.sender == payer || msg.sender == payee, \"Third parties are not allowed to submit evidence\");\n    emit Evidence(arbitrator, evidenceGroupID, msg.sender, _evidence);\n  }\n}",
  "sourcePath": "/home/victor/kairos/backend/contracts/SimpleEscrow.sol",
  "compiler": {
    "name": "solc",
    "version": "0.8.0+commit.c7dfd78e.Emscripten.clang"
  },
  "schemaVersion": "3.3.4",
  "updatedAt": "2021-06-28T16:16:00.609Z",
  "devdoc": {
    "kind": "dev",
    "methods": {
      "rule(uint256,uint256)": {
        "details": "Give a ruling for a dispute. Must be called by the arbitrator. The purpose of this function is to ensure that the address calling it has the right to rule on the contract.",
        "params": {
          "_disputeID": "ID of the dispute in the Arbitrator contract.",
          "_ruling": "Ruling given by the arbitrator. Note that 0 is reserved for \"Not able/wanting to make a decision\"."
        }
      }
    },
    "version": 1
  },
  "userdoc": {
    "kind": "user",
    "methods": {},
    "version": 1
  }
}