{
  "contractName": "SimpleCentralizedArbitrator",
  "abi": [
    {
      "anonymous": false,
      "inputs": [
        {
          "indexed": true,
          "internalType": "uint256",
          "name": "_disputeID",
          "type": "uint256"
        },
        {
          "indexed": true,
          "internalType": "contract IArbitrable",
          "name": "_arbitrable",
          "type": "address"
        }
      ],
      "name": "AppealDecision",
      "type": "event"
    },
    {
      "anonymous": false,
      "inputs": [
        {
          "indexed": true,
          "internalType": "uint256",
          "name": "_disputeID",
          "type": "uint256"
        },
        {
          "indexed": true,
          "internalType": "contract IArbitrable",
          "name": "_arbitrable",
          "type": "address"
        }
      ],
      "name": "AppealPossible",
      "type": "event"
    },
    {
      "anonymous": false,
      "inputs": [
        {
          "indexed": true,
          "internalType": "uint256",
          "name": "_disputeID",
          "type": "uint256"
        },
        {
          "indexed": true,
          "internalType": "contract IArbitrable",
          "name": "_arbitrable",
          "type": "address"
        }
      ],
      "name": "DisputeCreation",
      "type": "event"
    },
    {
      "inputs": [
        {
          "internalType": "uint256",
          "name": "",
          "type": "uint256"
        }
      ],
      "name": "disputes",
      "outputs": [
        {
          "internalType": "contract IArbitrable",
          "name": "arbitrated",
          "type": "address"
        },
        {
          "internalType": "uint256",
          "name": "choices",
          "type": "uint256"
        },
        {
          "internalType": "uint256",
          "name": "ruling",
          "type": "uint256"
        },
        {
          "internalType": "enum IArbitrator.DisputeStatus",
          "name": "status",
          "type": "uint8"
        }
      ],
      "stateMutability": "view",
      "type": "function"
    },
    {
      "inputs": [],
      "name": "owner",
      "outputs": [
        {
          "internalType": "address",
          "name": "",
          "type": "address"
        }
      ],
      "stateMutability": "view",
      "type": "function"
    },
    {
      "inputs": [
        {
          "internalType": "bytes",
          "name": "_extraData",
          "type": "bytes"
        }
      ],
      "name": "arbitrationCost",
      "outputs": [
        {
          "internalType": "uint256",
          "name": "",
          "type": "uint256"
        }
      ],
      "stateMutability": "pure",
      "type": "function"
    },
    {
      "inputs": [
        {
          "internalType": "uint256",
          "name": "_disputeID",
          "type": "uint256"
        },
        {
          "internalType": "bytes",
          "name": "_extraData",
          "type": "bytes"
        }
      ],
      "name": "appealCost",
      "outputs": [
        {
          "internalType": "uint256",
          "name": "",
          "type": "uint256"
        }
      ],
      "stateMutability": "pure",
      "type": "function"
    },
    {
      "inputs": [
        {
          "internalType": "uint256",
          "name": "_choices",
          "type": "uint256"
        },
        {
          "internalType": "bytes",
          "name": "_extraData",
          "type": "bytes"
        }
      ],
      "name": "createDispute",
      "outputs": [
        {
          "internalType": "uint256",
          "name": "disputeID",
          "type": "uint256"
        }
      ],
      "stateMutability": "payable",
      "type": "function"
    },
    {
      "inputs": [
        {
          "internalType": "uint256",
          "name": "_disputeID",
          "type": "uint256"
        }
      ],
      "name": "disputeStatus",
      "outputs": [
        {
          "internalType": "enum IArbitrator.DisputeStatus",
          "name": "status",
          "type": "uint8"
        }
      ],
      "stateMutability": "view",
      "type": "function"
    },
    {
      "inputs": [
        {
          "internalType": "uint256",
          "name": "_disputeID",
          "type": "uint256"
        }
      ],
      "name": "currentRuling",
      "outputs": [
        {
          "internalType": "uint256",
          "name": "ruling",
          "type": "uint256"
        }
      ],
      "stateMutability": "view",
      "type": "function"
    },
    {
      "inputs": [
        {
          "internalType": "uint256",
          "name": "_disputeID",
          "type": "uint256"
        },
        {
          "internalType": "uint256",
          "name": "_ruling",
          "type": "uint256"
        }
      ],
      "name": "rule",
      "outputs": [],
      "stateMutability": "nonpayable",
      "type": "function"
    },
    {
      "inputs": [
        {
          "internalType": "uint256",
          "name": "_disputeID",
          "type": "uint256"
        },
        {
          "internalType": "bytes",
          "name": "_extraData",
          "type": "bytes"
        }
      ],
      "name": "appeal",
      "outputs": [],
      "stateMutability": "payable",
      "type": "function"
    },
    {
      "inputs": [
        {
          "internalType": "uint256",
          "name": "_disputeID",
          "type": "uint256"
        }
      ],
      "name": "appealPeriod",
      "outputs": [
        {
          "internalType": "uint256",
          "name": "",
          "type": "uint256"
        },
        {
          "internalType": "uint256",
          "name": "",
          "type": "uint256"
        }
      ],
      "stateMutability": "pure",
      "type": "function"
    }
  ],
  "bytecode": "0x6080604052336000806101000a81548173ffffffffffffffffffffffffffffffffffffffff021916908373ffffffffffffffffffffffffffffffffffffffff16021790555034801561005057600080fd5b50611183806100606000396000f3fe6080604052600436106100915760003560e01c80638da5cb5b116100595780638da5cb5b14610195578063afe15cfb146101c0578063c13517e1146101fe578063f23f16e61461022e578063f7434ea91461026b57610091565b806310f169e8146100965780631c3db16d146100d3578063311a6c561461011057806349912f8814610139578063564a565d14610155575b600080fd5b3480156100a257600080fd5b506100bd60048036038101906100b89190610b2b565b6102a8565b6040516100ca9190610e5c565b60405180910390f35b3480156100df57600080fd5b506100fa60048036038101906100f59190610b2b565b61030a565b6040516101079190610f17565b60405180910390f35b34801561011c57600080fd5b5061013760048036038101906101329190610bac565b61035f565b005b610153600480360381019061014e9190610b54565b6106b4565b005b34801561016157600080fd5b5061017c60048036038101906101779190610b2b565b610706565b60405161018c9493929190610e17565b60405180910390f35b3480156101a157600080fd5b506101aa610773565b6040516101b79190610dfc565b60405180910390f35b3480156101cc57600080fd5b506101e760048036038101906101e29190610b2b565b610797565b6040516101f5929190610f32565b60405180910390f35b61021860048036038101906102139190610b54565b6107a6565b6040516102259190610f17565b60405180910390f35b34801561023a57600080fd5b5061025560048036038101906102509190610b54565b6109e5565b6040516102629190610f17565b60405180910390f35b34801561027757600080fd5b50610292600480360381019061028d9190610aea565b610a11565b60405161029f9190610f17565b60405180910390f35b6000600182815481106102e4577f4e487b7100000000000000000000000000000000000000000000000000000000600052603260045260246000fd5b906000526020600020906004020160030160009054906101000a900460ff169050919050565b600060018281548110610346577f4e487b7100000000000000000000000000000000000000000000000000000000600052603260045260246000fd5b9060005260206000209060040201600201549050919050565b60008054906101000a900473ffffffffffffffffffffffffffffffffffffffff1673ffffffffffffffffffffffffffffffffffffffff163373ffffffffffffffffffffffffffffffffffffffff16146103ed576040517f08c379a00000000000000000000000000000000000000000000000000000000081526004016103e490610ef7565b60405180910390fd5b600060018381548110610429577f4e487b7100000000000000000000000000000000000000000000000000000000600052603260045260246000fd5b906000526020600020906004020190508060010154821115610480576040517f08c379a000000000000000000000000000000000000000000000000000000000815260040161047790610ed7565b60405180910390fd5b600060028111156104ba577f4e487b7100000000000000000000000000000000000000000000000000000000600052602160045260246000fd5b8160030160009054906101000a900460ff166002811115610504577f4e487b7100000000000000000000000000000000000000000000000000000000600052602160045260246000fd5b14610544576040517f08c379a000000000000000000000000000000000000000000000000000000000815260040161053b90610e97565b60405180910390fd5b81816002018190555060028160030160006101000a81548160ff0219169083600281111561059b577f4e487b7100000000000000000000000000000000000000000000000000000000600052602160045260246000fd5b021790555060008054906101000a900473ffffffffffffffffffffffffffffffffffffffff1673ffffffffffffffffffffffffffffffffffffffff166108fc6105f260405180602001604052806000815250610a11565b9081150290604051600060405180830381858888f1935050505015801561061d573d6000803e3d6000fd5b508060000160009054906101000a900473ffffffffffffffffffffffffffffffffffffffff1673ffffffffffffffffffffffffffffffffffffffff1663311a6c5684846040518363ffffffff1660e01b815260040161067d929190610f32565b600060405180830381600087803b15801561069757600080fd5b505af11580156106ab573d6000803e3d6000fd5b50505050505050565b6106bf8383836109e5565b341015610701576040517f08c379a00000000000000000000000000000000000000000000000000000000081526004016106f890610eb7565b60405180910390fd5b505050565b6001818154811061071657600080fd5b90600052602060002090600402016000915090508060000160009054906101000a900473ffffffffffffffffffffffffffffffffffffffff16908060010154908060020154908060030160009054906101000a900460ff16905084565b60008054906101000a900473ffffffffffffffffffffffffffffffffffffffff1681565b60008060008091509150915091565b60006107f583838080601f016020809104026020016040519081016040528093929190818152602001838380828437600081840152601f19601f82011690508083019250505050505050610a11565b341015610837576040517f08c379a000000000000000000000000000000000000000000000000000000000815260040161082e90610e77565b60405180910390fd5b600160405180608001604052803373ffffffffffffffffffffffffffffffffffffffff1681526020018681526020016103e88152602001600060028111156108a8577f4e487b7100000000000000000000000000000000000000000000000000000000600052602160045260246000fd5b815250908060018154018082558091505060019003906000526020600020906004020160009091909190915060008201518160000160006101000a81548173ffffffffffffffffffffffffffffffffffffffff021916908373ffffffffffffffffffffffffffffffffffffffff160217905550602082015181600101556040820151816002015560608201518160030160006101000a81548160ff02191690836002811115610980577f4e487b7100000000000000000000000000000000000000000000000000000000600052602160045260246000fd5b02179055505050600180805490506109989190610fcd565b90503373ffffffffffffffffffffffffffffffffffffffff16817f141dfc18aa6a56fc816f44f0e9e2f1ebc92b15ab167770e17db5b084c10ed99560405160405180910390a39392505050565b60007f040000000000000000000000000000000000000000000000000000000000000090509392505050565b600067016345785d8a00009050919050565b6000610a36610a3184610f8c565b610f5b565b905082815260208101848484011115610a4e57600080fd5b610a59848285611086565b509392505050565b60008083601f840112610a7357600080fd5b8235905067ffffffffffffffff811115610a8c57600080fd5b602083019150836001820283011115610aa457600080fd5b9250929050565b600082601f830112610abc57600080fd5b8135610acc848260208601610a23565b91505092915050565b600081359050610ae481611136565b92915050565b600060208284031215610afc57600080fd5b600082013567ffffffffffffffff811115610b1657600080fd5b610b2284828501610aab565b91505092915050565b600060208284031215610b3d57600080fd5b6000610b4b84828501610ad5565b91505092915050565b600080600060408486031215610b6957600080fd5b6000610b7786828701610ad5565b935050602084013567ffffffffffffffff811115610b9457600080fd5b610ba086828701610a61565b92509250509250925092565b60008060408385031215610bbf57600080fd5b6000610bcd85828601610ad5565b9250506020610bde85828601610ad5565b9150509250929050565b610bf181611001565b82525050565b610c0081611050565b82525050565b610c0f81611074565b82525050565b6000610c22602983610fbc565b91507f4e6f7420656e6f7567682045544820746f20636f76657220617262697472617460008301527f696f6e20636f73747300000000000000000000000000000000000000000000006020830152604082019050919050565b6000610c88602283610fbc565b91507f44697370757465206973206e6f742077616974696e672061726269747261746960008301527f6f6e0000000000000000000000000000000000000000000000000000000000006020830152604082019050919050565b6000610cee602483610fbc565b91507f4e6f7420656e6f7567682045544820746f20636f7665722061707065616c206360008301527f6f737473000000000000000000000000000000000000000000000000000000006020830152604082019050919050565b6000610d54601483610fbc565b91507f52756c696e67206f7574206f6620626f756e64730000000000000000000000006000830152602082019050919050565b6000610d94603283610fbc565b91507f4f6e6c7920746865206f776e6572206f66207468697320636f6e74726163742060008301527f63616e20657865637574652072756c696e6700000000000000000000000000006020830152604082019050919050565b610df681611046565b82525050565b6000602082019050610e116000830184610be8565b92915050565b6000608082019050610e2c6000830187610bf7565b610e396020830186610ded565b610e466040830185610ded565b610e536060830184610c06565b95945050505050565b6000602082019050610e716000830184610c06565b92915050565b60006020820190508181036000830152610e9081610c15565b9050919050565b60006020820190508181036000830152610eb081610c7b565b9050919050565b60006020820190508181036000830152610ed081610ce1565b9050919050565b60006020820190508181036000830152610ef081610d47565b9050919050565b60006020820190508181036000830152610f1081610d87565b9050919050565b6000602082019050610f2c6000830184610ded565b92915050565b6000604082019050610f476000830185610ded565b610f546020830184610ded565b9392505050565b6000604051905081810181811067ffffffffffffffff82111715610f8257610f816110f3565b5b8060405250919050565b600067ffffffffffffffff821115610fa757610fa66110f3565b5b601f19601f8301169050602081019050919050565b600082825260208201905092915050565b6000610fd882611046565b9150610fe383611046565b925082821015610ff657610ff5611095565b5b828203905092915050565b600061100c82611026565b9050919050565b600081905061102182611122565b919050565b600073ffffffffffffffffffffffffffffffffffffffff82169050919050565b6000819050919050565b600061105b82611062565b9050919050565b600061106d82611026565b9050919050565b600061107f82611013565b9050919050565b82818337600083830152505050565b7f4e487b7100000000000000000000000000000000000000000000000000000000600052601160045260246000fd5b7f4e487b7100000000000000000000000000000000000000000000000000000000600052602160045260246000fd5b7f4e487b7100000000000000000000000000000000000000000000000000000000600052604160045260246000fd5b60038110611133576111326110c4565b5b50565b61113f81611046565b811461114a57600080fd5b5056fea2646970667358221220e80ef48570fce2c6abcef7dfdd0e59a511bd4413b595588eeea9701bfc1ea68364736f6c63430008000033",
  "immutableReferences": {},
  "source": "// SPDX-License-Identifier: GPL-3.0\npragma solidity ^0.8.0;\n\nimport \"./IArbitrator.sol\";\n\n/**\n * simple arbitrator example. Does NOT implement appeal functionality\n */\ncontract SimpleCentralizedArbitrator is IArbitrator {\n  address public owner = msg.sender;\n\n  struct Dispute {\n    IArbitrable arbitrated;\n    uint256 choices;\n    uint256 ruling;\n    DisputeStatus status;\n  }\n\n  Dispute[] public disputes;\n\n  function arbitrationCost(bytes memory _extraData) public override pure returns (uint256) {\n    return 0.1 ether;\n  }\n\n  function appealCost(uint256 _disputeID, bytes calldata _extraData) public override pure returns (uint256) {\n    return 2**250; // unaffordable amount to basically avoid appeals in this example\n  }\n\n  function createDispute(uint256 _choices, bytes calldata _extraData) public override payable returns (uint256 disputeID) {\n    // require payment to be at least the arbitrationCost\n    require(msg.value >= arbitrationCost(_extraData), \"Not enough ETH to cover arbitration costs\");\n\n    // create a new dispute\n    disputes.push(Dispute({\n      arbitrated: IArbitrable(msg.sender),\n      choices: _choices,\n      ruling: uint256(1000),\n      status: DisputeStatus.Waiting\n    }));\n\n    disputeID = disputes.length - 1;\n\n    emit DisputeCreation(disputeID, IArbitrable(msg.sender));\n  }\n\n  function disputeStatus(uint256 _disputeID) public override view returns (DisputeStatus status) {\n    status = disputes[_disputeID].status;\n  }\n\n  function currentRuling(uint256 _disputeID) public override view returns (uint256 ruling) {\n    ruling = disputes[_disputeID].ruling;\n  }\n\n  // proxy function which calls arbitrable.rule(), but performs some checks beforehand, then updates dispute, then calls\n  // rule of arbitrable to enforce ruling\n  function rule(uint256 _disputeID, uint256 _ruling) public {\n    // make sure only the arbitrator can decide ruling\n    require(msg.sender == owner, \"Only the owner of this contract can execute ruling\");\n\n    Dispute storage dispute = disputes[_disputeID];\n    \n    // require ruling to be a valid choice\n    require(_ruling <= dispute.choices, \"Ruling out of bounds\");\n    // rulings cannot be made on already solved dispute\n    require(dispute.status == DisputeStatus.Waiting, \"Dispute is not waiting arbitration\");\n\n    // update ruling and status of the dispute\n    dispute.ruling = _ruling;\n    dispute.status = DisputeStatus.Solved;\n\n    // pay arbitration fee to the arbitrator\n    // fee is deposited by payee when calling createDispute()\n    payable(owner).transfer(arbitrationCost(\"\"));\n    // call arbitrable rule function to enforce ruling\n    dispute.arbitrated.rule(_disputeID, _ruling);\n  }\n\n  function appeal(uint256 _disputeID, bytes calldata _extraData) public override payable {\n    require(msg.value >= appealCost(_disputeID, _extraData), \"Not enough ETH to cover appeal costs\");\n  }\n\n  function appealPeriod(uint256 _disputeID) public override pure returns (uint256, uint256) {\n    return (0, 0);\n  }\n}",
  "sourcePath": "/home/victor/kairos/backend/contracts/SimpleCentralizedArbitrator.sol",
  "compiler": {
    "name": "solc",
    "version": "0.8.0+commit.c7dfd78e.Emscripten.clang"
  },
  "schemaVersion": "3.3.4",
  "updatedAt": "2021-06-28T16:16:00.604Z",
  "devdoc": {
    "kind": "dev",
    "methods": {
      "appeal(uint256,bytes)": {
        "details": "Appeal a ruling. Note that it has to be called before the arbitrator contract calls rule.",
        "params": {
          "_disputeID": "ID of the dispute to be appealed.",
          "_extraData": "Can be used to give extra info on the appeal."
        }
      },
      "appealCost(uint256,bytes)": {
        "details": "Compute the cost of appeal. It is recommended not to increase it often, as it can be higly time and gas consuming for the arbitrated contracts to cope with fee augmentation.",
        "params": {
          "_disputeID": "ID of the dispute to be appealed.",
          "_extraData": "Can be used to give additional info on the dispute to be created."
        },
        "returns": {
          "_0": "Amount to be paid."
        }
      },
      "appealPeriod(uint256)": {
        "details": "Compute the start and end of the dispute's current or next appeal period, if possible. If not known or appeal is impossible: should return (0, 0).",
        "params": {
          "_disputeID": "ID of the dispute."
        },
        "returns": {
          "_0": "The start of the period.",
          "_1": "The end of the period."
        }
      },
      "arbitrationCost(bytes)": {
        "details": "Compute the cost of arbitration. It is recommended not to increase it often, as it can be highly time and gas consuming for the arbitrated contracts to cope with fee augmentation.",
        "params": {
          "_extraData": "Can be used to give additional info on the dispute to be created."
        },
        "returns": {
          "_0": "Amount to be paid."
        }
      },
      "createDispute(uint256,bytes)": {
        "details": "Create a dispute. Must be called by the arbitrable contract. Must be paid at least arbitrationCost(_extraData).",
        "params": {
          "_choices": "Amount of choices the arbitrator can make in this dispute.",
          "_extraData": "Can be used to give additional info on the dispute to be created."
        },
        "returns": {
          "disputeID": "ID of the dispute created."
        }
      },
      "currentRuling(uint256)": {
        "details": "Return the current ruling of a dispute. This is useful for parties to know if they should appeal.",
        "params": {
          "_disputeID": "ID of the dispute."
        },
        "returns": {
          "ruling": "The ruling which has been given or the one which will be given if there is no appeal."
        }
      },
      "disputeStatus(uint256)": {
        "details": "Return the status of a dispute.",
        "params": {
          "_disputeID": "ID of the dispute to rule."
        },
        "returns": {
          "status": "The status of the dispute."
        }
      }
    },
    "version": 1
  },
  "userdoc": {
    "kind": "user",
    "methods": {},
    "notice": "simple arbitrator example. Does NOT implement appeal functionality",
    "version": 1
  }
}